:020000040800F2
:10000000A005002001010008A5120008E911000860
:10001000A1120008A9010008A113000800000000B7
:10002000000000000000000000000000AD12000809
:10003000AD01000800000000A9120008B11200087C
:100040001B0100081B0100081B0100081B01000820
:100050001B0100081B0100081B0100081B01000810
:100060001B0100081B0100081B0100081B01000800
:100070001B0100081B0100081B0100081B010008F0
:100080001B0100081B0100081B0100081B010008E0
:100090001B0100081B0100081B0100081B010008D0
:1000A0001B0100081B0100081B0100081B010008C0
:1000B0001B0100081B0100081B0100081B010008B0
:1000C0001B0100081B0100081B0100081B010008A0
:1000D0001B01000881130008911300081B01000890
:1000E0001B0100081B0100081B010008DFF80CD0F1
:1000F00000F048F800480047A5130008A0050020BC
:100100000648804706480047FEE7FEE7FEE7FEE7B1
:10011000FEE7FEE7FEE7FEE7FEE7FEE7B9120008AE
:10012000ED000008D2B201E000F8012B491EFBD21D
:1001300070470022F6E710B513460A4604461946F2
:10014000FFF7F0FF204610BD421C10F8011B0029EC
:10015000FBD1801A704730B50B46014600202022A3
:10016000012409E021FA02F59D4205D303FA02F5C4
:10017000491B04FA02F52844151EA2F10102F1DC24
:1001800030BD0000064C074D06E0E06840F001037A
:1001900094E8070098471034AC42F6D3FFF7AAFF63
:1001A0006416000884160008FEE70000704700008F
:1001B000EFF3108072B600BFFEE70000014690F832
:1001C0002100022813D10868D1E90FC3026822F088
:1001D0000E020260026822F001020260012000FAB1
:1001E00003F2CCF8042081F82100002002E0042072
:1001F00088630120002281F82020704780B590F8A4
:100200002110022923D10268116821F00E0111602A
:100210002F211368C4F202018A4240F20401C4F2A1
:10022000020123F00103136015DD3023C4F2020341
:100230009A421CD04423C4F202039A421AD0582393
:10024000C4F202039A421AD14FF480331FE0042112
:100250008163012080BD0823C4F202039A420CD0BE
:100260001C23C4F202039A4209D110230FE04FF479
:1002700080730CE04FF4805309E0012307E001F1A3
:10028000680C4FF08073624508BF4FF480130B6019
:10029000416B4FF48072028401B18847002080BD19
:1002A000B0B5044600F010F9054640F20400C2F271
:1002B00000000078611C18BF044400BF00F004F97E
:1002C000401BA042FAD3B0BD2DE9F04F82B041F2FD
:1002D0000042C4F201020E680423904208BF0323C7
:1002E000002E009300F0EC8040F20C4E40F2004CE7
:1002F000C4F2010E0022C4F2010C01244FF0000AE6
:100300004FF000093FE0012502F00C040F27A74041
:100310002BEA070705FA04F43C4343F826404E68ED
:10032000F303DCF8003054BF23EA080343EA080370
:10033000CCF80030DCF80430B40354BF23EA0803DF
:1003400043EA0803CCF80430F402DCF8083054BF68
:1003500023EA080343EA0803B402CCF80830DEF8C5
:1003600000304FF0010454BF23EA080343EA0803B6
:10037000CEF800300E680AF1010A36FA0AF302F1EB
:10038000040200F09D8004FA0AFB16EA0B08F1D083
:100390004B684FF6FF75C1F21005AB4210DC122B13
:1003A00050D8DFE803F0330A41454F4F4F4F4F4FCE
:1003B0004F4F4F4F4F4F4F484C00D1F80C9041E0FA
:1003C0004FF6FF75C1F22105AB420FDC0025C1F2EB
:1003D0001105AB421AD00025C1F21205AB4215D06F
:1003E0000025C1F22105AB4210D02BE00025C1F25F
:1003F0002205AB420AD00025C1F23105AB4205D03F
:100400000025C1F23205AB421CD100BF8B6843B15D
:10041000012B14BFC0F814B0C0F810B04FF0080999
:1004200010E04FF004090DE0CB6803F1080909E082
:100430004FF0000906E0CB6803F1040902E0CB6845
:1004400003F10C0913460546B8F5807F24BF203B15
:1004500004352E680F279F40BE4309FA03F3334348
:100460002B60CB79DB067FF585AF41F21804C4F22F
:10047000020423684FEA9A0643F0010323602368CD
:1004800040F6000403F001030193019BACF57E7379
:1004900053F826B0C4F20104A0420FD040F6004445
:1004A000C4F20104A0423FF42EAF41F20004C4F2B2
:1004B0000104009DA04208BF022525E7002523E78F
:1004C00002B0BDE8F08F000040F29C10C2F20000C4
:1004D0000068704740F2040040F29C11C2F2000034
:1004E000C2F2000100780A681044086070470000FA
:1004F00080B542F20000C4F20200016841F0100130
:100500000160032000F08EF80F2000F005F800F0E5
:100510002BF8002080BD0000B0B540F20402C2F20A
:10052000000240F200011278C2F200014FF47A7327
:100530000968B3FBF2F20446B1FBF2F1084600F0A1
:100540001FFB0F2C4FF001050CD858B94FF0FF30AE
:1005500021460022002500F039F840F20800C2F2DE
:10056000000004602846B0BD82B041F21800C4F219
:1005700002000168022241F001010160016801F0FE
:10058000010101910199416841F080514160406849
:1005900000F08050009000980420C4F2010001682F
:1005A00062F31A61016002B070470000002848BF82
:1005B000704700F01F01012202FA01F14EF2001211
:1005C0004009CEF2000242F82010704710B54EF6F6
:1005D0000C5CCEF2000CDCF80030C3F3022E8EF07F
:1005E0000704042C28BF0424BEF103034FF0FF3E90
:1005F0000EFA04F438BF0023A14399400EFA03F326
:100600009A4300F00F03043B1143634409010C3388
:1006100000F16042B0F1FF3FC8BF02F564431970BA
:1006200010BD00004EF60C51CEF200010A684FF6E4
:10063000FF031A4060F30A2242F0806040F0FD7030
:10064000086070472DE9F04381B0002800F08580F4
:1006500042F20008C4F202080446D8F800000D4631
:1006600000F0070088420CD2D8F8000020F0070004
:100670002843C8F80000D8F8000000F00700A8429E
:100680006BD1206841F204098107C4F2020917D531
:10069000410705D5D9F8001041F4E061C9F8001010
:1006A000010705D5D9F8001041F46051C9F80010D0
:1006B000D9F80010A26821F0F0011143C9F8001028
:1006C000C00741D1D8F8000000F00700A8420CD9BB
:1006D000D8F8000020F007002843C8F80000D8F838
:1006E000000000F00700A84237D12068410707D575
:1006F000D9F80010E26821F4E0611143C9F8001054
:10070000000708D5D9F80000216920F4605040EABC
:10071000C100C9F80000D9F8002002F00C00082838
:1007200041F20020C0F27A004ED141F25463C2F38C
:100730008341C0F60003595CD20339D440F600105F
:10074000C0F23D0048433FE06068022809D001281C
:1007500029D159F8041C890307D4012001B0BDE850
:10076000F08359F8041C8901F7D5D9F8001021F05D
:1007700003010843C9F80000FFF7A6FE064641F250
:10078000883700BFD9F80000616800F00C00B0EBBA
:10079000810F97D0FFF798FE801BB842F2D9032053
:1007A00001B0BDE8F08359F8041C8907D5D5DCE712
:1007B000D9F8002041F23A63C2F34042C0F6000388
:1007C0009A5C4843B0FBF2F0D9F8001041F23C6269
:1007D000C1F30311C0F60002515C40F2000220FA9E
:1007E00001F140F20800C2F200000068C2F200020B
:1007F0001160FFF791FE002001B0BDE8F08300001A
:1008000040F2000041F20401C2F20000C4F2020111
:100810000068096841F24C62C1F30221C0F600028F
:10082000515CC8407047000040F2000041F20401F2
:10083000C2F20000C4F202010068096841F24C6291
:10084000C1F3C221C0F60002515CC84070470000ED
:100850002DE9F04182B0002800F0D78004460078EE
:1008600041F20006C007C4F2020644D0706800F0EE
:100870000C00042817D0706800F00C00082802D182
:100880007068C0030FD465682DB1B5F5A02F10D0E6
:10089000B5F5803F11D0306820F48030306030688A
:1008A00020F480200CE03068800324D5606810BB01
:1008B000ABE0306840F480203060306840F4803035
:1008C0003060FFF701FE002D054611D0306880032F
:1008D00011D4FFF7F9FD401B6428F7D916E100BFDA
:1008E000FFF7F2FD401B64284FF0030000F28A80FE
:1008F00030688003F4D42078800718D5706810F031
:100900000C0F07D0706800F00C00082827D1706821
:10091000C00324D43068800702D52069012874D12F
:100920003068616920F0F80040EAC100306020784A
:1009300000074FD5A06940B30020C4F24220012136
:10094000C0F88014FFF7C0FD054600BF706A80073D
:100950002DD4FFF7B9FD401B0228F7D9D6E0206956
:10096000002840F20000C4F2422000F0A6800121DD
:100970000160FFF7A9FD054630688007D0D4FFF776
:10098000A3FD401B0228F7D9C0E00020C4F242209A
:100990000021C0F88014FFF797FD0546706A8007B4
:1009A00018D5FFF791FD401B0228F7D9AEE040F2C1
:1009B0000000C2F20000006844F6D351C1F26201A7
:1009C000A0FB0101480A019000BF0198411E0028C8
:1009D0000191F9D1207840071BD4E5698DB1706889
:1009E00000F00C00082846D1012D0ED07068216A55
:1009F00000F480328A4208D1616A00F470108842A3
:100A000003D1002002B0BDE8F081012002B0BDE8B2
:100A1000F081F06910F0805808D1F06940F0805002
:100A2000F061F06900F080500090009847F20007F4
:100A3000C4F200073868C0050FD4386840F48070ED
:100A40003860FFF741FD05463868C00505D4FFF75B
:100A50003BFD401B6428F7D958E0E5681DB1052D22
:100A60003CD0012D3ED0306A20F001003062306A67
:100A700020F0040039E00027C4F242270020386645
:100A8000FFF722FD022D05460CD100BF3068800122
:100A900054D5FFF719FD401B02284FF00300F5D98C
:100AA000B0E700BF30688001ABD5FFF70DFD401BFC
:100AB00002284FF00300F5D9A4E700210160FFF7F9
:100AC00003FD0546306880077FF531AFFFF7FCFC7A
:100AD000401B02284FF00300F4D993E7306A40F03E
:100AE00004003062306A40F001003062FFF7ECFC35
:100AF000002D054641F2883714D000BF306A8007C8
:100B000013D4FFF7E1FC401BB842F7D9032002B031
:100B1000BDE8F081FFF7D8FC401BB8424FF003005E
:100B20003FF670AF306A8007F4D4B8F1000F7FF45D
:100B300054AFF06920F08050F0614EE7206AB0F5C4
:100B4000803F05D17168A26821F4003111437160C2
:100B50007168626A21F474111043084370600120C7
:100B60003866FFF7B1FC0446306880013FF549AFB5
:100B7000FFF7AAFC001B02284FF00300F4D941E75D
:100B8000411E0020B0EB116F1CBF012070474EF2D8
:100B90001002CEF2000251604EF62351CEF2000157
:100BA000F0230B70072190601160704770470000C0
:100BB00070470000B0B582B0016805460868CB6890
:100BC0004C6900F02F02202A03F0200205D122B147
:100BD000284600F07BFB02B0B0BD5FEA007C1EBF80
:100BE00004F0010E03F4907414EB0E0463D12A6B2D
:100BF000012A05D110F0100218BF13F0100235D1F0
:100C0000020622D513F080021FD095F83D0021285E
:100C10002AD1A868B0F5805F03D12869002800F0C8
:100C2000EC80286A421C2A6200784860E88C01380F
:100C30000204E88418D1C86820F08000C860C86841
:100C400040F04000C86002B0B0BD40060CD513F0C3
:100C5000400009D0C86820F04000C860202085F816
:100C60003D00284600F0BEFA02B0B0BD0020019061
:100C7000086801904868019001984869400622D4AC
:100C8000A88DEA8DEB8D002B1CBF801A5FEA004215
:100C9000EAD0CA6822F49072CA604A6922F001025E
:100CA0004A61202285F83E2000222A63CA6822F089
:100CB0001002CA602EE0C10718BF13F480712FD153
:100CC000410733D439E0A86B0268526893B2002B15
:100CD000CAD0AC8DA342C7D2EA858269202A16D039
:100CE000CA6822F48072CA604A6922F001024A612D
:100CF0004A6922F040024A61202285F83E20002203
:100D00002A63CA6822F01002CA60FFF757FAA88D5A
:100D1000E98D401A81B22846FFF748FF02B0B0BD06
:100D2000296C41F001012964410706D5BEF1000F8D
:100D300003D0296C41F002012964810706D5BEF178
:100D4000000F03D0296C41F004012964BCF1000FAD
:100D500006D552EA0E0103D0296C41F0080129643E
:100D6000296C00293FF480AF10F0200018BF002A42
:100D700002D0284600F0AAFA286841692A6C01F0DE
:100D8000400102F0080289182BD0C16821F490714B
:100D9000C160416921F001014161296B012903D141
:100DA000C16821F01001C160202185F83E100021AA
:100DB0002963416949061BD5416921F04001416120
:100DC000A86BA8B141F2BD21C0F600014163FFF755
:100DD00015FA00283FF448AFA86B416B884702B072
:100DE000B0BD2846FFF7E4FE0020286402B0B0BD85
:100DF0002846FFF7DDFE02B0B0BD286A30F8022BAE
:100E00006FF35F224A60286210E70000002804BFE9
:100E10000120704710B5044690F83D0028B9002025
:100E200084F83C00204600F05FF8242084F83D0060
:100E30002068D4E90212C36823F40053C360036935
:100E400023F440531A430261D4E904231143C268D6
:100E5000194341F20C639A431143C1604169A2698D
:100E600021F44071114343F60002C4F201029042A2
:100E7000416102D0FFF7C4FC01E0FFF7D5FC6268D6
:100E8000192148439100B0FBF1F048F21F51C5F21F
:100E9000EB11A0FB01235A096FF0630302FB03006F
:100EA000322303EB0010A0FB0101F02303EA5113EE
:100EB000206803EB0212C1F3431111448160016900
:100EC00021F490410161416921F02A014161C16829
:100ED00041F40051C16000202021206484F83D10BD
:100EE00084F83E1010BD000070B586B0006844F272
:100EF0000041C4F20001002688420596CDE9036650
:100F000002963AD043F60001C4F2010188426AD148
:100F100041F21800C4F20200016840F6000441F4F6
:100F2000804101600168C4F2010401F48041019133
:100F30000199016802AD41F0040101600068294691
:100F400000F00400019001984FF40070029002201C
:100F50000390032005902046FFF7B6F94FF4806018
:100F600002900020CDE9030020462946FFF7ACF9A6
:100F7000252001210022252430E041F21800C4F28E
:100F80000200416840F6000441F4003141604168CC
:100F9000C4F2010401F4003101910199016802AD2C
:100FA00041F0040101600068294600F0040001904E
:100FB000019804200290022003900320059020460F
:100FC000FFF782F90820CDE902062046294604965B
:100FD000FFF77AF92620002100222624FFF7F6FAEF
:100FE0002046FFF7E3FA06B070BD0000034690F814
:100FF0003E0020280AD100294FF0010018BF002A26
:1010000000D1704793F83C00012801D102207047BD
:1010100000201863996222219A85DA85186483F882
:101020003E10196883F83C00CA6842F48072CA60B6
:101030004A6942F001024A61CA6842F02002CA606D
:1010400070470000B0B544F200450446C4F2000504
:10105000006805F5744188420AD140F2141040F24C
:101060001101C2F20000C2F200010122FFF7BEFF2F
:101070002068A84218BFB0BD40F21000C2F20000C4
:10108000027840F21211C2F20001531C0978037079
:1010900040F21203C2F200030A29995404BF00214E
:1010A000017040F2581040F21211C2F20000C2F278
:1010B00000010122FFF79AFFB0BD00002DE9F047C3
:1010C000044690F83D0020280ED10F4600294FF02D
:1010D000010000F085801646002A08BFBDE8F087B1
:1010E00094F83C00012802D10220BDE8F0870120DD
:1010F00084F83C004FF0000A21201D46C4F840A0AF
:1011000084F83D00FFF7E0F9A684E684A1688046F4
:10111000B1F5805F07D1206900281CBF38465746CB
:10112000B946074601E04FF0000984F83CA0E08C86
:1011300048B36E1C0AE000BF87B117F8010B2168A5
:101140004860E08C0138E084E08CE0B12068006801
:101150000006F1D4AEB175B91DE000BF39F8020B3D
:1011600021686FF35F2048600027EAE701680906FD
:10117000E2D4002EFAD0FFF7A7F9A0EB0800A842AE
:1011800009D82068F2E720680068400624D415B129
:101190006E1C14D019E02068C16821F4D071C160C0
:1011A000416921F001014161202084F83D0084F86B
:1011B0003E00002084F83C000320BDE8F087206852
:1011C0000168490608D4002EFAD0FFF77DF9A0EB9C
:1011D0000800A842F3D9DEE7202084F83D00002073
:1011E000BDE8F08770470000FEE7000083B041F2E1
:1011F0001800C4F20200016841F0100101600168AA
:1012000001F0100102910299016841F02001016092
:10121000016801F0200101910199016841F0040188
:101220000160006800F004000090009803B070476F
:1012300080B540F2141043F60001C2F20000C4F27F
:10124000010100234FF00C0C4FF4E13280E80E0056
:10125000C0E90333C0E905C3C361FFF7D7FD002828
:1012600018BFFEF7A5FF80BD80B540F2581044F2CC
:101270000041C2F20000C4F2000100234FF00C0C48
:101280004FF4E13280E80E00C0E90333C0E905C342
:10129000C361FFF7BBFD002818BFFEF789FF80BDC3
:1012A000FEE70000FEE70000704700007047000006
:1012B00080B5FFF70FF980BD7047000080B5406A28
:1012C0000021C185C184FFF773FC80BD80B582B069
:1012D00090F83E1022291ED18268B2F5805F02D1BB
:1012E0000169002940D0816AB2F5805F07D00AB950
:1012F000026922B10268526802F07F0201E00268CE
:1013000052680A700121826A11448162C18D0139DB
:101310000A04C18501D002B080BD0168CA6822F00C
:101320002002CA60CA6822F48072CA604A6922F048
:1013300001024A61202280F83E20026B012A1BD163
:1013400000220263CB6823F01003CB600B68DB063E
:1013500005D501920A680192496801910199818D30
:10136000FFF724FC02B080BD0168826A49686FF310
:101370005F2111800221C6E7FFF764FE02B080BD45
:1013800080B540F21410C2F20000FFF713FC80BDDC
:1013900080B540F25810C2F20000FFF70BFC80BD90
:1013A000FEE7000090B0FFF7A3F806AC2046282126
:1013B000FEF7BFFE012006900A904FF4E0100025D2
:1013C0004FF4803102260F9020460595CDE9035554
:1013D000CDE90155CDE90715CDE90D61FFF738FAE3
:1013E00018B1EFF3108072B6FEE70F20CDE90106C9
:1013F0004FF48060CDE9040501A802210395FFF7B1
:1014000021F920B1EFF3108072B600BFFEE7FFF7BD
:10141000EDFEFFF70DFFFFF727FF40F2141040F23B
:101420001101C2F20000C2F200010122FFF7DEFD4D
:1014300040F25814C2F2000440F21211C2F200014C
:1014400020460122FFF7D2FD40F292060025C2F2AB
:1014500000060EA7C820FEF723FF304639462A466D
:1014600000F018F83046FEF76FFE82B22046314693
:101470004FF47A73FFF722FE3046FEF765FE014611
:101480003046FEF756FE0135E4E700BF5B315D25CF
:10149000640D0A000FB4084B10B504A902AA039802
:1014A00000F01CF8044602A9002000F0C1F8204614
:1014B00010BC5DF814FB00003116000802E008C8FB
:1014C000121F08C1002AFAD170477047002001E0BE
:1014D00001C1121F002AFBD1704700002DE9FF4F08
:1014E00089B09B460446002506E025280BD05A46C5
:1014F0000B999047641C6D1C20780028F5D10DB025
:101500002846BDE8F08F0027B8460122474900E091
:10151000074314F8013F203B02FA03F00842F7D1D9
:1015200020782E2819D114F8010F47F004072A2833
:101530000ED06FF02F022078A0F1300109290CD8CD
:1015400008EB880102EB410100EB0108641CF2E7A3
:101550000A98641C50F8048B0A9020780028CED09A
:10156000642808D0692806D075281ED05A460B99E1
:1015700090476D1C58E00A994FF00A0901C90A9179
:10158000002802DA40422D2102E0390504D52B2142
:101590008DF82010012103E0F90704D02021F7E79E
:1015A0008A4608AE0DE00021FAE70A994FF00A09D1
:1015B00001C90A91F7E74946FEF7CDFD303106F83B
:1015C000011D0028F7D1ADEB060000F120097807D6
:1015D00001D44FF00108C84502DDA8EB090000E086
:1015E00000208046002706E008A85A46C05D0B99F7
:1015F00090476D1C7F1C5745F6DB04E030205A46AF
:101600000B9990476D1CB8F10001A8F10108F5DCB9
:1016100005E016F8010B5A460B9990476D1CB9F17D
:101620000001A9F10109F4DC641C65E70928010047
:101630000A68531C0B601070704701020000000024
:101640000000000001020304060708090000000072
:101650000102030402030405060708090A0B0C0D26
:101660000E0F101088160008000000201000000067
:10167000BC14000898160008100000209005000017
:10168000CC140008000000000024F4000100000059
:08169000100000000000000042
:04000005080000ED02
:00000001FF
