:020000040800F2
:100000007007002001010008F1290008B52200084E
:10001000ED290008510B0008E12A0008000000004B
:10002000000000000000000000000000F9290008A6
:10003000550B000800000000F5290008FD29000804
:100040001B0100081B0100081B0100081B01000820
:100050001B0100081B0100081B0100081B01000810
:100060001B0100081B0100081B0100081B01000800
:100070001B0100081B0100081B0100081B010008F0
:100080001B0100081B0100081B0100081B010008E0
:100090001B0100081B0100081B0100081B010008D0
:1000A0001B0100081B0100081B0100081B010008C0
:1000B000052A00081B0100081B0100081B0100089D
:1000C0001B0100081B0100081B0100081B010008A0
:1000D0001B010008D52A00081B0100081B010008AD
:1000E0001B0100081B0100081B010008DFF80CD0F1
:1000F00000F0BAFC00480047B9370008700700203C
:100100000648804706480047FEE7FEE7FEE7FEE7B1
:10011000FEE7FEE7FEE7FEE7FEE7FEE7012A00084E
:10012000ED0000082DE9F0410024061B254671F181
:10013000000605DA01240027D0EB070067EB010178
:10014000161E73F1000605DA0027D2EB070201251F
:1001500067EB030300F043FB86460E4617469C46BA
:10016000AC4204D00025D0EB050E65EB010624B1AE
:100170000020D2EB000760EB030C704631463A4694
:100180006346BDE8F081D2B201E000F8012B491EC0
:10019000FBD270470022F6E710B513460A46044624
:1001A0001946FFF7F0FF204610BD30B505462A4638
:1001B0000B4612F8010B13F8014B08B1A042F8D01E
:1001C0001CB1002802D06D1CF1E7284630BD421C4E
:1001D00010F8011B0029FBD1801A704730B5044686
:1001E0000020034600E05B1C934203D2E05CCD5C40
:1001F000401BF8D030BDF0B480EA0102D40F4200B9
:10020000B2EB410F02D20246084611464A0042D0E4
:10021000C30DDDB2C1F3C752AD1A202D35DAC1F3DB
:10022000160141F4000204B15242C5F1200602FA5F
:1002300006F12A411044B3EBD05F23D0C4B1012DA5
:10024000A0EBC35009DCF0BC4FF0004202EAC352FD
:10025000DBB200F5000000F01DBB400000F1807033
:1002600000EBC350A0F1807040EAD170490009E072
:10027000490841EAC071A0EBC35000F500004008F6
:1002800000EBC350F0BC00F0FCBA6142012202EB6B
:100290004101001BF6E7F0BC704781F00041AAE77E
:1002A00080F00040A7E780EA010210B502F00043A9
:1002B000400022D04A001FD0010E01EB1261C0F3B2
:1002C0005600C2F3560240F4000042F40002A0FBC4
:1002D000022000047F39140400D0401C50EA124070
:1002E00001D44000491EC2B20C0604EBD010401CE1
:1002F0004008802A02D003E0002010BD20F0010059
:10030000002900DA0020184310BD30B480EA010251
:1003100002F0004530F0004221F0004013D090B1CF
:10032000C30DD40DC2F31601C0F31600E41A41F454
:10033000000140F400027D34914201D3641C00E0CE
:100340004900002C02DA30BC002070474FF4000056
:100350000023914201D3891A034340084FEA410127
:10036000F7D151B1914202D14FF0004105E002D2E4
:100370004FF0010101E06FF0010103EBC45028448C
:1003800030BC00F07EBA2DE9FE4F804681EA0300C2
:10039000C00F0C46009021F0004123F00045B8EB5F
:1003A0000200A94105D24046214690461C460B4614
:1003B000024623F00040104347D0270DC7F30A0040
:1003C000C3F30A510290401A019040286BDAC3F33C
:1003D000130040F4801B0098924620B10023D2EB1A
:1003E000030A63EB0B0B01985946C0F140025046DB
:1003F00000F026FA06460D4650465946019A00F08E
:100400002EFA10EB08006141002487EA115284EAB9
:10041000E7731A4340D0009A62B3019A012A4FEA67
:10042000075215DC001B61EB02014FF0004202EAAB
:100430000752CDE90042001C41F5801132462B469F
:1004400000F065FA03B0BDE8F08F40462146F9E7B9
:10045000001B61EB0201001C41F5801300185B4199
:100460002018A2F5001747EB030140EAD570B61932
:100470006D4111E06D084FEA360645EAC0754FEA56
:100480000752001B61EB0201001C41F58011490875
:100490004FEA30000019514132462B4603B0BDE807
:1004A000F04F00F025BA0098012240000023D0EB65
:1004B000020263EBE073009821464FEAE074B8EB68
:1004C000000061EB0401E9E783F000435BE781F0A2
:1004D000004158E72DE9FE4F81EA030404F000448F
:1004E00021F0004100944FF0000B23F0004350EA4C
:1004F00001045ED052EA03045BD0C3F30A54C1F393
:100500000A552C44A4F2F3340194A0FB0254C1F325
:10051000130141F48011C3F3130343F4801301FB6F
:10052000024400FB034E840A970A44EA815447EAD6
:100530008357A4FB076802958D0A05FB07854FEAE0
:10054000932C04FB0C542705029D4FEA065847EAFA
:100550001637B5EB08056EEB070C870E920E47EACF
:10056000811742EA8312A7FB0201B6EB0B0164EB91
:1005700000042B0D43EA0C335E1844EB1C50DA46A2
:100580005146E7FB0201C5F313044FEA0B3343EA7C
:1005900014534FEA0432019C43EA0603A4F10C040D
:1005A0000294009CCDE900B400F0B1F903B0BDE8BD
:1005B000F08F00200146F9E72DE9F04D81EA0304B0
:1005C00004F0004B21F0004514464FF0000A23F0E0
:1005D000004150EA050220D054EA01021DD0C5F3C3
:1005E0000A570246C5F31303C1F31300C1F30A56B9
:1005F00040F4801543F48013A7EB0608101BD64681
:1006000008F2FD3873EB050002D308F1010801E0A0
:1006100092185B41B8F1000F03DA00200146BDE8F3
:10062000F08D00204FF48011064684460EE0171B23
:1006300073EB050705D3121B63EB050306434CEA76
:10064000010C49084FEA300092185B4150EA01075B
:10065000EDD152EA030012D082EA040083EA0501D8
:10066000084305D0101BAB4106D20122002306E04F
:1006700000224FF0004302E06FF0010253101AEB2A
:1006800006004CEB085110EB0A0041EB0B01BDE8F2
:10069000F04D00F02DB9002801DBC0F10040002929
:1006A00001DBC1F10041814201D8012070470020E7
:1006B0007047002801DBC0F10040002901DBC1F1D7
:1006C0000041814201D2012070470020704700287C
:1006D00001DBC0F10040002901DBC1F10041814292
:1006E00001D90120704700207047002801DBC0F1CC
:1006F0000040002901DBC1F10041814201D101200C
:10070000704700207047C10F80EAE0700844CA07B4
:100710009623002100F0BEB896230022114600F077
:10072000B9B800F0004220F00040C10DC0F316003F
:1007300040F400007F2901DA00207047962903DC8D
:10074000C1F19601C84001E096398840002AF4D0F2
:100750004042704700F0004230F000400AD0C10D26
:1007600001F56071C0F3160042EA0151C20840076A
:100770001143704700200146704701F0004330B438
:1007800021F0004150EA010206D00A0DA2F5607284
:10079000C1F31301002A02DC30BC00207047440F73
:1007A00044EAC104C100E01830BC00EBC25000F0C4
:1007B00068B830B50B46014600202022012409E02C
:1007C00021FA02F59D4205D303FA02F5491B04FA0A
:1007D00002F52844151EA2F10102F1DC30BD2DE91D
:1007E000F05F0546002092469B46884606468146B5
:1007F00040241BE0284641464746224600F046F981
:1008000053465A46C01A914110D311461846224603
:1008100000F016F82D1A67EB01084F46224601201A
:10082000002100F00DF817EB00094E41201EA4F145
:100830000104DFDC484631462A464346BDE8F09FC6
:10084000202A04DB203A00FA02F100207047914090
:10085000C2F1200320FA03F3194390407047202A85
:1008600006DBCB17203A41FA02F043EAE07306E0D8
:1008700041FA02F3D040C2F12002914008431946E8
:1008800070470029A8BF7047401C490008BF20F0EE
:100890000100704710B4B0FA80FC00FA0CF050EA86
:1008A000010404BF10BC704749B1CCF1200421FA07
:1008B00004F411FA0CF118BF012121430843A3EB02
:1008C0000C01CB1D4FEA00614FEA102042BF00200F
:1008D00010BC704700EBC35010440029A4BF10BCEB
:1008E0007047401C490008BF20F0010010BC704751
:1008F00010B5141E73F1000408DA401C41F1000128
:1009000092185B411A4301D120F0010010BD2DE97E
:10091000F04D92469B4611B1B1FA81F202E0B0FA75
:1009200080F220329046FFF78BFF04460F4640EAE4
:100930000A0041EA0B0153465A46084313D01146B8
:1009400053EA010019D0C8F14002504600F09EF869
:1009500005460E46504659464246FFF771FF08438A
:1009600005D0012004E020463946BDE8F08D002086
:10097000054346EAE0762C4337430A986305E40AC8
:10098000A0EB08000022FD0A44EA47540A3002D5D1
:1009900000200146E9E7010510196941DDE9084534
:1009A00000196941BDE8F04DA2E770B521F00043A0
:1009B00003430CD0C1F30A550024D5EB040564EBC6
:1009C0000403D617AD1AB34102DB0020014670BD07
:1009D000201841EB025170BDC1F30A52C1F313015B
:1009E00040F2FF3341F480119A4202DA00200146BE
:1009F000704740F233439A42A2F2334202DC524241
:100A000000F044B8FFF71CBF30B5041E71F10004BC
:100A100004DB4FF00044404264EB0101141E73F10B
:100A2000000405DB1C464FF00043524263EB040315
:100A30008B4208BF824230BD30B5041E71F1000404
:100A400004DB4FF00044404264EB0101141E73F1DB
:100A5000000405DB1C464FF00043524263EB0403E5
:100A6000994208BF904230BD064C074D06E0E06851
:100A700040F0010394E8070098471034AC42F6D3E5
:100A8000FFF738FB8C710008AC710008202A04DBEA
:100A9000203A21FA02F00021704721FA02F3D040F7
:100AA000C2F1200291400843194670472DE9F04DEC
:100AB00000231A461B1A8A4103DB00200146BDE8C9
:100AC000F08DC1F30A52C1F3130141F480154FF0C8
:100AD000000BD10702D100186D41521E00270446B9
:100AE00040F2FF11384601EB620A3E46804602465C
:100AF00000204FF48011FFF7C9FFC2197141BB18E4
:100B000046EB0100B4EB030C75EB000C04D3E41AC4
:100B100065EB000517460E46241908F101006D41EA
:100B200080463428E3DDF91946EB0600091BA8418D
:100B300003D24FF0FF32134601E0002213461BEBB5
:100B4000070046EB0A51BDE8F04DFFF7D1BE0000AB
:100B5000FEE7000070470000EFF3108072B600BFA0
:100B6000FEE70000014690F82100022816D108682F
:100B7000D1E90FC3026822F00E020260026822F07F
:100B800001020260012000FA03F2CCF8042081F88F
:100B900021000020002281F8202070470420886373
:100BA0000120002281F820207047000080B590F8D5
:100BB0002110022924D10268116821F00E01116070
:100BC0002F211368C4F202018A4240F20401C4F2E8
:100BD000020123F00103136016DD3023C4F2020387
:100BE0009A421DD04423C4F202039A421CD05823D7
:100BF000C4F202039A421DD14FF4803322E000BFB9
:100C000004218163012080BD0823C4F202039A42BB
:100C10000ED01C23C4F202039A420BD1102311E020
:100C20004FF480730EE000BF4FF480530AE000BF22
:100C3000012307E001F1680C4FF08073624508BFA3
:100C40004FF480130B60416B4FF48072028401B14A
:100C50008847002080BD0000B0B5044600F026F9AA
:100C6000054640F20800C2F200000078611C18BF7F
:100C7000044400BF00F01AF9401BA042FAD3B0BDF3
:100C80002DE9F04F82B041F20042C4F201020E6839
:100C90000423904208BF0323002E009300F0F68047
:100CA00040F20C4E4FF6FF7CC4F2010E00220124EC
:100CB000C1F2100C4FF0000A4FF0000943E000BFF2
:100CC000012502F00C040F27A7402BEA070705FABD
:100CD00004F43C4343F82640D1F804B040F2004508
:100CE000C4F201055FEACB332B6854BF23EA080343
:100CF00043EA08032B606B685FEA8B3454BF23EA36
:100D0000080343EA08036B605FEACB24AB6854BF77
:100D100023EA080343EA08035FEA8B24AB60DEF8AA
:100D200000304FF0010454BF23EA080343EA0803EC
:100D3000CEF800300E680AF1010A36FA0AF302F121
:100D4000040200F0A38004FA0AF816EA080FF1D0B2
:100D50004B68634512DC122B56D8DFE803F0350BE5
:100D60004549555555555555555555555555554D57
:100D7000510000BFD1F80C9046E000BF4FF6FF775E
:100D8000C1F22107BB420FDC0027C1F21107BB42B1
:100D90001AD00027C1F21207BB4215D00027C1F2BA
:100DA0002107BB4210D02FE00027C1F22207BB422F
:100DB0000AD00027C1F23107BB4205D00027C1F29B
:100DC0003207BB4220D100BF8B684BB1012B14BF4F
:100DD000C0F81480C0F810804FF0080914E000BF7C
:100DE0004FF0040910E000BFCB6803F108090BE0E5
:100DF0004FF0000908E000BFCB6803F1040903E0ED
:100E0000CB6803F10C0900BF13460546BAF1080F81
:100E100024BF203B04352E680F279F40BE4309FAAC
:100E200003F333432B60CB79DB067FF583AF41F2CD
:100E30001804C4F2020423684FEA9A0643F001033F
:100E40002360236840F6000403F001030193019B33
:100E500040F20043C4F20103A3F57E7353F826B0B9
:100E6000C4F20104A0420FD040F60044C4F20104D1
:100E7000A0423FF425AF41F20004C4F20104009DFA
:100E8000A04208BF02251CE700251AE702B0BDE812
:100E9000F08F00008068084018BF012070470000F4
:100EA000002A08BF090401617047000040F2641085
:100EB000C2F200000068704740F2080040F264117E
:100EC000C2F20000C2F2000100780A681044086013
:100ED0007047000080B542F20000C4F202000168D1
:100EE00041F010010160032000F08AF80F2000F0AB
:100EF00005F800F027F8002080BD000070B540F232
:100F00000806C2F2000640F248013278C2F200013F
:100F10004FF47A730968B3FBF2F20446B1FBF2F1C5
:100F2000084600F05FFB0F2C4FF0010508D838B9D8
:100F30004FF0FF3021460022002500F035F87460A4
:100F4000284670BD82B041F21800C4F20200016868
:100F5000022241F001010160016801F001010191EB
:100F60000199416841F080514160406800F0805033
:100F7000009000980420C4F20100016862F31A6135
:100F8000016002B070470000002848BF704700F0C1
:100F90001F01012202FA01F14EF200124009CEF2C5
:100FA000000242F82010704710B54EF60C5CCEF2ED
:100FB000000CDCF80030C3F3022E8EF00704042C82
:100FC00028BF0424BEF103034FF0FF3E0EFA04F4E1
:100FD00038BF0023A14399400EFA03F39A4311430B
:100FE00000F00F02043A624409010C3200F1604340
:100FF000B0F1FF3FC8BF03F56442117010BD00009F
:101000004EF60C51CEF200010A684FF6FF031A406B
:1010100060F30A2242F0806040F0FD700860704783
:101020002DE9F04381B0002800F0858042F20008ED
:10103000C4F202080446D8F800000D4600F007008C
:1010400088420CD2D8F8000020F007002843C8F8E6
:101050000000D8F8000000F00700A8426BD120681B
:1010600041F204098107C4F2020917D5410705D5E9
:10107000D9F8001041F4E061C9F80010010705D566
:10108000D9F8001041F46051C9F80010D9F80010E7
:10109000A26821F0F0011143C9F80010C00741D146
:1010A000D8F8000000F00700A8420CD9D8F80000DA
:1010B00020F007002843C8F80000D8F8000000F02E
:1010C0000700A84237D12068410707D5D9F800109A
:1010D000E26821F4E0611143C9F80010000708D567
:1010E000D9F80000216920F4605040EAC100C9F835
:1010F0000000D9F8002002F00C00082841F200207E
:10110000C0F27A0050D146F2E843C2F38341C0F600
:101110000003595CD2033BD440F60010C0F23D00FE
:10112000484341E0606802280AD001282AD159F8D2
:10113000041C890308D4012001B0BDE8F08300BF7E
:1011400059F8041C8901F6D5D9F8001021F00301E3
:101150000843C9F80000FFF7A9FE064641F28837A8
:10116000D9F80000616800F00C00B0EB810F97D057
:10117000FFF79CFE801BB842F2D9032001B0BDE806
:10118000F08300BF59F8041C8907D4D5DCE700BF01
:10119000D9F8002046F2C843C2F34042C0F600032B
:1011A0009A5C4843B0FBF2F0D9F8001046F2D04206
:1011B000C1F30311C0F60002515C40F2480220FA6C
:1011C00001F140F20C00C2F200000068C2F200021D
:1011D0001160FFF793FE002001B0BDE8F08300002E
:1011E00040F2480041F20401C2F20000C4F20201E0
:1011F0000068096846F2E042C1F30221C0F600022D
:10120000515CC8407047000040F2480041F20401C0
:10121000C2F20000C4F202010068096846F2E0422E
:10122000C1F3C221C0F60002515CC8407047000003
:101230002DE9F04182B0002868D00446007841F2E0
:101240000006C007C4F2020625D0706800F00C004A
:1012500004281BD0706800F00C00082802D17068C8
:10126000C00313D46068002800F06881B0F5A02F97
:1012700000F07C81B0F5803F00F07C81306820F484
:1012800080303060306820F4802076E13068800360
:1012900001D56068D0B32078800718D5706810F049
:1012A0000C0F07D0706800F00C0008286ED1706831
:1012B000C0036BD43068800702D52069012825D18E
:1012C0003068616920F0F80040EAC10030602078A1
:1012D00000071FD42078400732D4E56995B17068C3
:1012E00000F00C00082840F08F80012D0ED07068AF
:1012F000216A00F480328A4208D1616A00F47010D9
:10130000884203D1002002B0BDE8F081012002B084
:10131000BDE8F081A069002862D00020C4F242201C
:101320000121C0F88014FFF7C1FD0546706A8007EF
:1013300000F18C80FFF7BAFD401B0228F6D92AE1A4
:10134000F06910F0805808D1F06940F08050F061E9
:10135000F06900F080500090009847F20007C4F256
:1013600000073868C00529D4386840F480703860B8
:10137000FFF79CFD054600BF3868C0051ED4FFF787
:1013800095FD401B6428F7D905E100BF20690028BE
:1013900040F20000C4F2422000F08280012101608E
:1013A000FFF784FD054600BF306880073FF588AF32
:1013B000FFF77CFD401B0228F6D9ECE0E06800282E
:1013C00000F08080052800F09780012800F09880C8
:1013D000306A20F001003062306A20F0040092E0B0
:1013E0000020C4F242200021C0F88014FFF75EFD07
:1013F000054600BF706A80077FF56CAFFFF756FDAA
:10140000401B0228F6D9C6E00027C4F2422700207C
:101410003866FFF74BFD022D05460BD13068800181
:1014200040F1BE80FFF742FD401B02284FF0030051
:10143000F4D968E7306880017FF564AFFFF736FDC7
:10144000401B02284FF00300F4D95CE740F248004B
:10145000C2F20000006844F6D351C1F26201A0FB61
:101460000101480A019000BF00BF0198411E0028F9
:1014700001913FF42FAF00BF0198411E0028019158
:101480003FF428AF00BF0198411E002801913FF4AE
:1014900021AF00BF0198411E00280191E4D119E756
:1014A00000210160FFF702FD054600BF306880079C
:1014B0007FF50DAFFFF7FAFC401B02284FF0030049
:1014C000F4D920E7306A20F001003062306A20F061
:1014D00004003062FFF7EAFC054641F2883700BF9E
:1014E000306A800720D5FFF7E1FC401BB8424FF07F
:1014F0000300F5D907E700BF306A40F0040030620E
:10150000306A40F001003062FFF7D0FC054641F23E
:10151000883700BF306A800706D4FFF7C7FC401B3E
:10152000B842F7D937E000BFB8F1000F7FF4D5AE6D
:10153000F06920F08050F061CFE600BF306820F401
:1015400080303060306820F480203060FFF7AEFCDF
:10155000054600BF306880037FF59DAEFFF7A6FC0F
:10156000401B64284FF00300F4D9CCE6306840F407
:1015700080203060306840F480303060FFF796FCA7
:10158000054600BF306880033FF585AEFFF78EFC4F
:10159000401B6428F6D9032002B0BDE8F08100BFEB
:1015A000206AB0F5803F05D17168A26821F400314E
:1015B000114371607168626A21F474111043084329
:1015C000706001203866FFF771FC044630688001C6
:1015D0003FF598AEFFF76AFC001B02284FF00300AE
:1015E000F4D990E6411E0020B0EB116F1CBF012022
:1015F00070474EF21002CEF2000251604EF62351B7
:10160000CEF20001F0230B7007219060116070474B
:10161000704700007047000010B590F83C20012A88
:101620004FF0020233D080F83D200268D2F804E087
:10163000D2F808C00C682EF07003234340F2FF7408
:10164000C4F20004A24253600ADCB2F1804F13D00E
:1016500040F20043C4F200039A420DD011E000BFF3
:1016600042F60043C4F201039A4205D040F600035B
:10167000C4F200039A4204D149682CF08003194354
:1016800091600121002280F83D1080F83C20104636
:1016900010BD0000002804BF0120704710B50446AB
:1016A00090F83D0028B9002084F83C00204600F066
:1016B00067F8022084F83D00206840F2FF7302685A
:1016C000C4F2000342F6004C9842C4F2010C15DC4F
:1016D000B0F1804F1AD040F20041C4F200018842BC
:1016E00014D0984218DCB0F1804F1DD040F2004178
:1016F000C4F20001884217D01AE000BF604505D04F
:1017000040F60001C4F200018842EAD1A16822F04B
:1017100070020A439842E6DD604505D040F60001BC
:10172000C4F20001884203D1216922F440720A43C5
:10173000A36922F08001D4F804E0E268194360450F
:101740000160C262C0F828E002D16169CCF83010B3
:1017500001214161002084F8461084F83E1084F88D
:101760003F1084F8401084F8411084F8421084F847
:10177000431084F8441084F8451084F83D1010BDDF
:1017800080B582B00068B0F1804F1CBF02B080BD50
:1017900041F21C00C4F202000168002241F0010184
:1017A00001600068012100F00100019001981C20F7
:1017B000FFF7FAFB1C2002B0BDE88040FFF7E4BB56
:1017C00090F83D1001291CBF01207047022180F8CC
:1017D0003D10006840F2FF72C168C4F200029042FE
:1017E00041F00101C16009DCB0F1804F12D040F23C
:1017F0000041C4F2000188420CD012E042F60041E0
:10180000C4F20101884205D040F60001C4F2000193
:10181000884206D1816801F00701062904BF002033
:101820007047016841F0010101600020704700002D
:1018300080B590F83C20012A4FF0020200F0BF80F2
:1018400080F83D20D0F800C04FF67772DCF8083001
:1018500023EA0202CCF808200B683F2B1CDD5F2B2B
:1018600020DD602B50D0B3F5005F6DD0702B40F0C1
:10187000A080D1E901E3C968DCF8082043EA0E033F
:1018800022F47F4243EA01211143CCF80810DCF82E
:10189000081041F077018AE01F2B29DC63B3102B7D
:1018A0002AD086E0402B63D0502B40F08280D1F8C4
:1018B00004E0C968DCF82030DCF8202022F00102C6
:1018C000CCF82020DCF8182022F0F00242EA0111C6
:1018D00023F00A0242EA0E02CCF81810CCF82020BD
:1018E000DCF8081041F0570121F020015FE000BF53
:1018F000202B01D0302B5CD1DCF8081021F07001D6
:10190000194341F0070152E0D1F804E0C968DCF85E
:10191000203023F01003CCF82030DCF81830DCF84D
:10192000202023F4704322F0A00243EA013142EA6E
:101930000E12CCF81810CCF82020DCF8081041F07A
:10194000670121F0100132E0D1E901E3C968DCF858
:10195000082043EA0E0322F47F4243EA01211143A7
:10196000CCF80810DCF8081041F480411FE000BFFB
:10197000D1F804E0C968DCF82030DCF8202022F03F
:101980000102CCF82020DCF8182022F0F00242EA14
:10199000011123F00A0242EA0E02CCF81810CCF82A
:1019A0002020DCF8081041F0470121F03001CCF88C
:1019B00008100121002280F83D1080F83C201046DC
:1019C00080BD00007047000010B50168044608693A
:1019D000800744BFC8685FEA807039D4086940074F
:1019E00044BFC8685FEA40703ED40869000744BF3E
:1019F000C8685FEA007045D40869C00644BFC8687B
:101A00005FEAC0604AD40869C0071CBFC8685FEAC3
:101A1000C07051D10869000644BFC8685FEA006021
:101A200052D40869400644BFC8685FEA406053D496
:101A30000869800646BFC8685FEA806010BD6FF025
:101A4000200220460A61BDE81040FFF7E3BD00BF59
:101A50006FF002000861012020778869800743D079
:101A60002046FFF7AFFF45E06FF004000861022059
:101A70002077886910F4407F40D02046FFF7A2FF0E
:101A800042E000BF6FF00800086104202077C869B9
:101A900080073DD02046FFF795FF3FE06FF0100034
:101AA000086108202077C86910F4407F3AD02046AA
:101AB000FFF788FF3CE000BF6FF00100086120469F
:101AC00000F03EF82168A5E76FF08000086120462D
:101AD000FFF79EFD2168A4E76FF0400008612046F3
:101AE00000F076F82168A3E7204600F025F82046AC
:101AF00000F024F82168002020776FE7204600F0EE
:101B00001BF8204600F01AF82168002020776CE7C7
:101B1000204600F011F8204600F010F8216800205F
:101B2000207769E7204600F007F8204600F006F825
:101B300021680020207766E77047000070470000AA
:101B4000B0B50068B0F1804F18BFB0BD40F2C40519
:101B5000C2F20005288840F25C140130C2F2000491
:101B600040F2601140F268122880C2F20001C2F215
:101B70000002204601F0CEFE2068FEF7EBFD024693
:101B800011A00B4603F0DCFB2888C8280AD841F2D4
:101B90000000C4F201004FF400510022BDE8B04043
:101BA000FFF77EB9B0F5FA7F0AD841F20000C4F21F
:101BB00001004FF400510122BDE8B040FFF770B9B9
:101BC00000202880B0BD00BF25660D0A000000007F
:101BD000704700007047000070470000B0B582B049
:101BE000026805461068D368546900F02F01202967
:101BF00003F0200106D129B1284602B0BDE8B0406B
:101C000000F00CBF5FEA007C1EBF04F0010E03F47D
:101C1000907414EB0E0455D1296B012905D110F0F5
:101C2000100118BF13F0100136D1010622D513F0B0
:101C300080011FD095F83D00212841D1A868B0F55A
:101C4000805F03D12869002800F0F680286A411CD3
:101C5000296200785060E88C01380104E8842FD1B3
:101C6000D06820F08000D060D06840F04000D060A4
:101C700002B0B0BD400623D513F0400020D0D0689C
:101C8000202120F04000D060284685F83D1002B0A9
:101C9000BDE8B04000F00CBB00200190106801903E
:101CA0005068019001985069400613D4A88DE98DC1
:101CB000EB8D002B1CBF401A5FEA004140F0A4806E
:101CC00002B0B0BDC40718BF13F480732CD1430712
:101CD00030D436E0A86B01684B689CB2002CEFD082
:101CE000A98D8C42ECD2EB858369202B17D0D1686B
:101CF00021F48071D160516921F001015161516974
:101D000021F040015161202185F83E100021296316
:101D1000D16821F01001D160FEF724FFA98DE88D74
:101D2000081A81B2284682E02B6C43F001032B6431
:101D3000430706D5BEF1000F03D02B6C43F002031E
:101D40002B64830706D5BEF1000F03D02B6C43F044
:101D500004032B64BCF1000F06D551EA0E0303D037
:101D60002B6C43F008032B642B6C002BA8D010F0D5
:101D7000200018BF002903D0284600F04FFE2A6833
:101D80005069296C00F0400001F0080140182DD086
:101D9000D06820F49070D060506920F0010050614C
:101DA000286B012803D1D06820F01000D0602020DB
:101DB00085F83E0000202863506940061ED5506912
:101DC00020F040005061A86BC0B142F61121C0F66E
:101DD00000014163FEF7EAFE00283FF471AFA86BF3
:101DE000416B02B0BDE8B040084700BF2846FFF78E
:101DF000F3FE0020286402B0B0BD00BF284602B048
:101E0000BDE8B040FFF7E8BED16821F49071D16021
:101E1000516921F001015161202185F83E10002116
:101E20002963D16821F0100381B22846D36002B043
:101E3000BDE8B040FFF7CEBE286A30F8021B6FF352
:101E40005F215160286206E7002804BF0120704727
:101E500010B5044690F83D0028B9002084F83C00F5
:101E6000204600F05FF8242084F83D002068D4E983
:101E70000212C36823F40053C360036923F4405380
:101E80001A430261D4E904231143C268194341F2A1
:101E90000C639A431143C1604169A26921F4407106
:101EA000114343F60002C4F201029042416103D0A3
:101EB000FFF796F902E000BFFFF7A6F96268192163
:101EC00048439100B0FBF1F048F21F51C5F2EB110D
:101ED000A0FB01235A096FF0630302FB03003223C6
:101EE00003EB0010A0FB0101F02303EA511320686B
:101EF00003EB0212C1F3431111448160016921F423
:101F000090410161416921F02A014161C16841F4B8
:101F10000051C16000202021206484F83D1084F825
:101F20003E1010BD70B586B0006844F20041C4F2A6
:101F30000001002688420596CDE9036602963FD04F
:101F400043F60001C4F20101884266D141F2180053
:101F5000C4F20200016840F6000441F480410160CF
:101F60000168C4F2010401F4804101910199016802
:101F700002AD41F0040101600068294600F0040050
:101F8000019001984FF4007002900220039003200A
:101F900005902046FEF774FE4FF48060029000200A
:101FA000CDE9030020462946FEF76AFE25200021E0
:101FB0000022FEF7F9FF2520FEF7E6FF06B070BD10
:101FC00041F21800C4F20200416840F6000441F4F6
:101FD000003141604168C4F2010401F40031019113
:101FE0000199016802AD41F00401016000682946D1
:101FF00000F0040001900198042002900220039058
:10200000032005902046FEF73BFE0820CDE902069E
:10201000204629460496FEF733FE06B070BD000048
:10202000034690F83E0020280AD100294FF0010015
:1020300018BF002A00D1704793F83C00012801D155
:102040000220704700201863996222219A85DA8560
:10205000186483F83E10196883F83C00CA6842F49B
:102060008072CA604A6942F001024A61CA6842F05D
:102070002002CA607047000070B5006843F6000196
:10208000C4F2010140F250048842C2F2000429D196
:1020900060782178421C20440A296270017321D1A2
:1020A000002004F10C05607012A12846FEF77DF8AF
:1020B0000646606011A12846FEF777F8A060B0FAE6
:1020C00080F0400940F2CE01002E18BF01263040BA
:1020D000C2F2000108702846FEF779F8014628464A
:1020E000FEF758F804F1200021460122BDE87040B7
:1020F000FFF796BF5354415254000000454E440030
:102100002DE9F04381B0044690F83D0020280DD120
:102110000F4600294FF0010000F092801646002A79
:1021200000F08E8094F83C00012803D1022001B019
:10213000BDE8F083012084F83C004FF00009212025
:102140001D46C4F8409084F83D00FEF7AFFEA6841B
:10215000E684A1688046B1F5805F25D1206900281A
:102160001CBF38464F463E46074684F83C90E08CFC
:1021700000B3681C20D0002D66D120680BE000BFA2
:1021800036F8021B00276FF35F214160E18C0139B3
:10219000E184E18C81B30168090675D5002FEFD089
:1021A00017F8011BF1E700BF002684F83C90E08C93
:1021B0000028DED120681FE0206802E001680906DF
:1021C00009D40168090606D4016809065CBF0168E4
:1021D0005FEA0161F2D51FB117F8011B05E000BFEE
:1021E00036F8021B00276FF35F214160E18C013953
:1021F000E184E18C0029E4D1016849061CD4002D5A
:1022000042D0691C0ED10168490615D401684906FF
:102210005CBF01685FEA41610ED401684906F2D5EE
:102220000AE000BFFEF742FEA0EB08012068A942C9
:102230002AD800684006F5D5202084F83D0000200B
:1022400001B0BDE8F08300BF206800BF0168090647
:1022500008D4FEF72BFEA0EB08012068A942F5D9AF
:1022600012E000BF17B117F8011B04E036F8021B9B
:1022700000276FF35F214160E18C0139E184E18C3B
:102280000029E3D1B8E700BFC16821F4D071C16073
:10229000416921F001014161202084F83D0084F86A
:1022A0003E00002084F83C00032001B0BDE8F0832C
:1022B00070470000FEE70000F0B581B040F6004432
:1022C000C4F201040546204680210122FEF7E8FD04
:1022D000204640210122FEF7E3FD20468021FEF743
:1022E000D9FD0646002820464FF040014FF000027D
:1022F00018BF0126FEF7D4FD204640210122FEF73B
:10230000CFFD20468021FEF7C5FD002818BF012023
:1023100040EA4607204640210022FEF7C1FD204644
:1023200040210122FEF7BCFD20468021FEF7B2FDD0
:102330000646002820464FF040014FF0000218BF2B
:102340000126FEF7ADFDB80040EA460620464021D2
:102350000122FEF7A5FD20468021FEF79BFD002807
:1023600018BF01203718204640210022FEF798FDB3
:10237000204640210122FEF793FD20468021FEF7F2
:1023800089FD0646002820464FF040014FF000022C
:1023900018BF0126FEF784FDB80040EA4606204635
:1023A00040210122FEF77CFD20468021FEF772FDD0
:1023B000002818BF01203718204640210022FEF7D0
:1023C0006FFD204640210122FEF76AFD2046802154
:1023D000FEF760FD0646002820464FF040014FF012
:1023E000000218BF0126FEF75BFDB80040EA460672
:1023F000204640210122FEF753FD20468021FEF7B2
:1024000049FD002818BF0120064420464021002233
:10241000FEF746FD681EB0FA80F042092046802192
:10242000FEF73EFD204640210122FEF739FD204601
:1024300040210022FEF734FDF0B201B0F0BD0000F3
:10244000B0B540F60044C4F201040546C209204676
:102450008021FEF725FD204640210122FEF720FDC8
:10246000204640210022FEF71BFDC5F380122046C6
:102470008021FEF715FD204640210122FEF710FDC8
:10248000204640210022FEF70BFDC5F340122046F6
:102490008021FEF705FD204640210122FEF700FDC8
:1024A000204640210022FEF7FBFCC5F30012204627
:1024B0008021FEF7F5FC204640210122FEF7F0FCCA
:1024C000204640210022FEF7EBFCC5F3C002204667
:1024D0008021FEF7E5FC204640210122FEF7E0FCCA
:1024E000204640210022FEF7DBFCC5F38002204697
:1024F0008021FEF7D5FC204640210122FEF7D0FCCA
:10250000204640210022FEF7CBFCC5F340022046C6
:102510008021FEF7C5FC204640210122FEF7C0FCC9
:10252000204640210022FEF7BBFC05F001022046B8
:102530008021FEF7B5FC204640210122FEF7B0FCC9
:10254000204640210022FEF7ABFC204680210122DC
:10255000FEF7A6FC204640210122FEF7A1FC204602
:102560008021FEF797FC0546204640210022FEF719
:1025700097FC2846B0BD000080B56B20802100F09C
:10258000E5F86420FEF768FB6B20002100F0DEF820
:102590001B20182100F0DAF81C20002100F0D6F8EA
:1025A0001920132100F0D2F81A20042100F0CEF8EF
:1025B0003820002100F0CAF86A20002100F0C6F897
:1025C0002320002100F0C2F83720802100F0BEF85F
:1025D000752000F013F86B20012100F0B7F86C2093
:1025E000002100F0B3F81920042100F0AFF81A2000
:1025F000022100F0ABF8002080BD0000B0B540F62D
:102600000044C4F201040546204680210122FEF761
:1026100047FC204640210122FEF742FC2046802153
:102620000022FEF73DFC204640210022FEF738FC48
:10263000D020FFF705FF2846FFF702FF2046802144
:102640000122FEF72DFC204640210122FEF728FC46
:10265000204680210022FEF723FC20464021002254
:10266000FEF71EFCD120FFF7EBFE0120FFF724FE52
:102670000546204680210022FEF712FC204640211C
:102680000122FEF70DFC204680210122FEF708FC06
:102690002846B0BD2DE9F04140F60044C4F20104E3
:1026A0001646884607462046802101221D46FEF731
:1026B000F7FB204640210122FEF7F2FB2046802155
:1026C0000022FEF7EDFB204640210022FEF7E8FB4A
:1026D0007F00F8B2FFF7B4FE4046FFF7B1FE204698
:1026E00080210122FEF7DCFB204640210122FEF77B
:1026F000D7FB204680210022FEF7D2FB2046402156
:102700000022FEF7CDFB781CC0B2FFF799FE05E072
:102710000120FFF7D1FD05F8010B013EF0B20128C1
:10272000F6D008B10020F4E7204680210022FEF711
:10273000B7FB204640210122FEF7B2FB2046802154
:102740000122FEF7ADFB0020BDE8F08170B540F638
:102750000044C4F201040D460646204680210122B1
:10276000FEF79EFB204640210122FEF799FB204602
:1027700080210022FEF794FB204640210022FEF734
:102780008FFBD020FFF75CFE3046FFF759FE28464E
:10279000FFF756FE204680210022FEF781FB2046EF
:1027A00040210122FEF77CFB204680210122FEF71A
:1027B00077FB002070BD00002DE9F04140F6004499
:1027C000C4F2010415460F46064620468021012228
:1027D0009846FEF765FB204640210122FEF760FB8C
:1027E000204680210022FEF75BFB2046402100228C
:1027F000FEF756FB7000C0B2FFF722FE3846FFF727
:102800001FFE3DB1A8F1010616F8010FFFF718FEF3
:10281000013DF9D1204680210022FEF741FB2046F0
:1028200040210122FEF73CFB204680210122FEF7D9
:1028300037FB0020BDE8F0812DE9F04385B041F27F
:102840001800C4F20200016840F6004441F0100193
:1028500001600168C4F2010401F0100101910199C5
:10286000016804F5806541F02001016001680022E3
:1028700001F020010191019901684FF4005641F0E7
:102880000401016001684FF0000901F004010191A9
:102890000199016841F00801016000684FF400519E
:1028A00000F00800019001982846FEF7F9FA20464A
:1028B000C02101224FF0C0080127FEF7F1FA01A85C
:1028C00080E8C002022001AE049028463146FEF79F
:1028D000D7F91820CDE90109204631460397FEF7C4
:1028E000CFF91120CDE9020703200490204631469C
:1028F000CDF80480FEF7C4F905B0BDE8F083000010
:1029000080B586B040F2D0000021C2F200004FF046
:102910008042472340F2E73C0591CDE90311CDE920
:102920000011C0E90023C0E9021C01618161FEF7CA
:10293000B1FE002818BFFEF70FF94FF48050029047
:1029400040F2D000C2F2000002A9FEF771FF002899
:1029500018BFFEF701F940F2D000C2F2000069464C
:10296000FEF75AFE002818BFFEF7F6F806B080BD45
:1029700080B540F2500043F60001C2F20000C4F2FC
:10298000010140F8201F4FF4E13100220C23C0E97F
:102990000112C0E90322C0E90532C261FFF754FA0F
:1029A000002808BF80BDBDE88040FEF7D5B8000014
:1029B00080B540F2181044F20041C2F20000C4F2A7
:1029C000000100234FF00C0C4FF4165280E80E006B
:1029D000C0E90333C0E905C3C361FFF735FA002836
:1029E00008BF80BDBDE88040FEF7B6B8FEE7000036
:1029F000FEE700007047000070470000FEF75CBA79
:102A00007047000040F2D000C2F20000FEF7DCBFC9
:102A1000406A0021C185C184FFF7DEB881B090F81B
:102A20003E10222920D18368B3F5805F08D1016967
:102A3000002941D000F128010A6803685B680AE0B8
:102A4000014651F8282F13B90369002BF5D003680C
:102A50005B6803F07F0313700A6801320A60C18D5E
:102A600001390A04C18501D001B070470168CA6804
:102A700022F02002CA60CA6822F48072CA604A69E1
:102A800022F001024A61202280F83E20026B012AD6
:102A90001CD100220263CB6823F01003CB600B68CB
:102AA000DB0605D500920A680092496800910099FA
:102AB000818D01B0FFF78EB80168826A49686FF3B3
:102AC0005F2122F8021B8262C9E700BF01B0FFF755
:102AD000D3BA000040F27000C2F20000FFF77EB8E7
:102AE000FEE700002DE9F04186B004464CF60220D6
:102AF000C0F6E3100DF10205CDF8020068200421B4
:102B00002A4602F071FBA3206FF03F018DF802000E
:102B100014F0400608BF6FF05C016FF037026FF0F1
:102B20003D0308BF6FF05C0208BF6FF05C038DF8D7
:102B300003106FF03B018DF804208DF8053014F47C
:102B4000C07708BF6FF05C016FF033026FF039039C
:102B500008BF6FF05C0208BF6FF05C038DF80610D1
:102B60004AF2A3318DF80720ADF809108DF80B005B
:102B700040F6A7200A212A468DF8083002F034FBDF
:102B8000202014F0030808BF6FF027008DF8020022
:102B900040F6B62001212A4602F026FBA0060BD4FF
:102BA000C720059048F6B000CCF2C35004904AF616
:102BB000B820CAF6AA200AE05D20059049F6B400C4
:102BC000C3F20D5004904AF6B820C8F6B3500390F3
:102BD00003AA4FF49760092102F006FB2FB36FF0B0
:102BE0004D016FF0740214F4807008BF6FF04F0154
:102BF00008BF6FF07F026FF049036FF0640508BFF4
:102C00006FF04B03002808BF6FF06F058DF80210BE
:102C10008DF803200DF1020240F6A22004218DF868
:102C200004308DF8055002F0DFFAE00708D1D82013
:102C30008DF802000DF102024FF40B60012150E00B
:102C4000F8208DF802000DF102024FF40B60012113
:102C500002F0CAFA0720FA2100F000FB3F208DF8AD
:102C60000C0003AA4FF4A470012102F0BDFA002069
:102C70008DF80C0003AA40F24F10012102F0B4FAC3
:102C80004FF4A050ADF80C0003AA4FF4EF700221EE
:102C900002F0AAFA4FF4C840ADF80C0003AA4FF4B2
:102CA000ED70022102F0A0FA48F60060C9F2F900C6
:102CB000039003AA4FF4AE70042102F095FA4FF48A
:102CC0000060ADF80C0003AA4FF4AD70022102F0D1
:102CD0008BFA4FF40070ADF80C0003AA4FF4AC70FF
:102CE000022102F081FAA0076FF0260058BF6FF0B2
:102CF00027008DF802000DF1020240F23D70012123
:102D000002F072FA600752BF4FF08B304CF2C020D5
:102D1000CCF2C460039003AA40F69820042102F08C
:102D200063FA01F06BFAE00652BF4FF0A33042F6AF
:102D30002000C3F63000039003AA40F69E20042131
:102D400002F052FA01F05AFA40F2B40544F00800D9
:102D5000C2F20005A88001F051FA002E18BF062625
:102D6000002F18BF063614F0140F18BF46F01006D7
:102D7000B8F1000F18BF043600202E7006B0BDE871
:102D8000F081000046F2F841C0F6000140F6F6304E
:102D90004FF48062C82301F023B800002DE9F04F02
:102DA00089B01446DDE912A20F46002140F2B409B1
:102DB000AAF80010C2F2000999F800100DF10408F9
:102DC0008346084641461E4601F0BAF920B14FF04D
:102DD000FF3009B0BDE8F08FB9F804C01CF0140F43
:102DE0005AD09DF805209DF804109DF80630120475
:102DF000B6469DF8076042EA016141EA0322324487
:102E000022609DF809209DF80830120442EA03620E
:102E10009DF80A309DF80B6042EA03233344636057
:102E20009DF80D309DF80C601B0443EA06639DF885
:102E30000E609DF80F5043EA06262E441214A66039
:102E40009DF81160091452439DF8105001FB0121B7
:102E500036041A1446EA056602FB0211321402FB1C
:102E600002119DF812506FF088529DF81300114422
:102E70004FF6FE7246EA0525CFF6FF5228449142EE
:102E8000E06071D801F0BAF90020AAF800004FF014
:102E9000FF3009B0BDE8F08F00215FEA4C6026D515
:102EA00041F0010218F8010018F8022041F0030374
:102EB00042EA002041F0020218F8022018F803301C
:102EC000388043EA022041F0040241F0050318F87B
:102ED000022018F80330788043EA0220B880BAF85C
:102EE000000041F0060140F00800AAF800001CF4C0
:102EF000C07F18D038F8010008EB010200BA5388EF
:102F0000000CABF8000018BA9288000CABF8020075
:102F100010BA000CABF80400BAF80000063140F01B
:102F20007000AAF800005FEA8C7016D008EB01056B
:102F30006878EC78C10709D0D9F8082032B104F0DC
:102F40000700411CC4F3C20090476878000704D50D
:102F5000D9F80C1009B1A0098847304600F080FC70
:102F6000002009B0BDE8F08FBAF80000102140F44D
:102F700080707646AAF800005FEA4C6090D4B6E70D
:102F8000B0B584B004460DF1020000F047FE40F2F7
:102F9000C801C2F200010988BDF8020001F0030275
:102FA0004B0754F822204FF00C034FEAC03C48BFB7
:102FB000524203EA51038806E358C1F3811048BF27
:102FC0005B4254F82000C90548BF40428CFB000119
:102FD0008CFB02E2800F8CFB035440EA810C900DC5
:102FE0008DF80400900B8DF8050090098DF806000F
:102FF000A00D8DF80800A00B8DF80900A0098DF830
:103000000A00880D8DF80C00880B4FEA9E73AD0FF7
:103010008DF80D00880943EA820345EA84058DF89E
:103020000E0001AA4FF425700C218DF807308DF8A1
:103030000B508DF80FC002F0D7F804B0B0BD0000FF
:1030400010B586B004464AF6BB70CDF6DF70059029
:103050004FF2AA10CDF6DF7004904FF2FE20CCF2B2
:10306000AB40C82C039017D8E0B2C821B1FBF0F0F8
:10307000002101388DF804108DF8050001AA40F2F6
:103080001620022102F0B0F830B903AA40F6C120A0
:103090000C2102F0A9F818B14FF0FF3006B010BDB6
:1030A00040F2CC00C2F200000480002006B010BD47
:1030B00070B582B040F2C801C2F2000109884EF238
:1030C000093401F0030250F822200C264B0748BFB8
:1030D0005242C0F2CA2406EA5106C1F3811582FBAE
:1030E0000423865950F82550880648BF7642C80503
:1030F0004FEA935148BF6D42900F8DF80410990B21
:1031000040EA83008DF8051099098DF806108DF8B6
:10311000070001AA4FF47470042102F065F868B941
:1031200086FB0401800F40EA810000BA019001AAE9
:103130004FF47570042102F057F818B14FF0FF30CA
:1031400002B070BD85FB0401800F40EA8100010ED2
:103150008DF80410010C8DF80510010A8DF8061089
:103160008DF8070001AA4FF47670042102F03CF8B4
:1031700002B070BDB0B582B0054646F2CD41C0F692
:103180000001C5F3C10300F00300CC5C0A5C8DF8BC
:10319000054046F2CA448DF80420C5F38112C0F6FA
:1031A0000004895C205C8DF806108DF80000E05C5E
:1031B000A15C8DF801008DF8021001AA40F22640B2
:1031C000032102F011F850BB6A4640F22A40032165
:1031D00002F00AF818BB45F23660C0F276000190A2
:1031E00044F22660C0F26600690700901CD4A8066D
:1031F00022D4E80505D577208DF8060067208DF8E4
:10320000020001AA4FF48860032101F0EDFF30B9FC
:103210006A4640F23140032101F0E6FFB0B14FF0C1
:10322000FF3002B0B0BD00BF37208DF8040027206A
:103230008DF80000A806DCD557208DF80500472042
:103240008DF80100E805D6D4DBE700BF40F2C800E6
:10325000C2F200000580002002B0B0BDF0B583B01E
:103260000446B1F5C86F4FF0FF3055D814F007028F
:1032700052D00846FDF750FA0021C4F24831FDF75C
:1032800044F805460DF1070000F0AAFC9DF8070080
:1032900002384FEA7002072A4FF0FF303CD8002670
:1032A000C4F240664FF08D41DFE802F01504360AA3
:1032B000363636100026C4F2C0564FF08C410AE074
:1032C0000026C4F240564FF08B4104E00026C4F2C1
:1032D000C0464FF08A412846FCF7E5FF07462846DE
:1032E0003146FCF7E0FFFDF71CFA06463846FDF7CD
:1032F00018FA010A8DF808108DF80900300A02A9A1
:103300008D1C8DF80A00E0078DF80B6006D1A00730
:1033100014D4600722D4002003B0F0BD02AA4FF4F9
:10332000EA70022101F060FF38BB4FF49270022175
:103330002A4601F059FF00BBE9E700BF02AA4FF49B
:10334000EC70022101F050FFB8B94FF494700221E3
:103350002A4601F049FF80B9DBE700BF02AA4FF41B
:10336000EE70022101F040FF38B94FF4967002214F
:103370002A4601F039FF0028CDD04FF0FF3003B0CE
:10338000F0BD000080B582B0019040F25000C2F262
:103390000000203001A901224FF47A73FEF7B0FE3D
:1033A000019802B080BD00002DE9F04F85B040F2D9
:1033B000100705460120C2F200070C46ADF80800D0
:1033C000D7E9031016460078897C02AB0222FFF78A
:1033D000F3F9002840F0C280C820FDF73DFC002032
:1033E0008DF80800D7E9031002AB0078C97B0122F1
:1033F000FFF7E2F9002840F0B180D7E9031002ABF3
:10340000007849790122FFF7D7F9002840F0A6801B
:10341000D7E9031002AB0078897C0122FFF7CCF9D1
:10342000002840F09B80D7E9031002AB0078C97DEB
:103430000122FFF7C1F9002840F09080D7E903107E
:1034400002AB007809790122FFF7B6F9002840F0B5
:1034500085800C208DF80800D7E9031002AB0078B6
:1034600009790122FFF7A8F9002877D10F20FDF78D
:10347000F3FB786BF968407A3A698DF808001078A8
:10348000897802AB0122FFF797F9002866D1786BA3
:10349000F968007A3A698DF808001078497802AB2B
:1034A0000122FFF789F9002858D1786BD7E9031278
:1034B000807A002E18BF40F0E0008DF808001078E8
:1034C000897902AB0122FFF777F9002846D12EB1A6
:1034D000786BC07A60F01F0001E000BF18208DF803
:1034E0000800D7E9031002AB0078C9790122FFF781
:1034F00063F998BB16B1C820FDF7AEFB40208DF8EC
:103500000800D7E9031002AB007809790122FFF720
:1035100053F918BB78208DF80800D7E9031002ABE7
:10352000007849790122FFF747F9B8B93220FDF751
:1035300093FB00208DF80800D7E9031002AB007858
:1035400049790122FFF738F940B9D7E9031002ABF6
:103550000078897A0222FFF79DF828B14FF0FF37F3
:10356000384605B0BDE8F08FBDF808004AF6AB213B
:1035700000BA000C4843C0F3C7420021002AC5E945
:103580000011A960C4E900110192A16044D0C00CEF
:1035900000260DF108095FFA80F8D7E903100C2224
:1035A0000078C97A4B46FFF775F80028D6D1BDF8E8
:1035B0000800BDF80C20BDF80A1090FA80FC92FAC1
:1035C00082FED4E90030A26809BA00EB214002EB88
:1035D0002E4103EB2C43A160BDF81010C4E900306C
:1035E000BDF81220BDF80E0091FA81FEA96892FA8A
:1035F00082FCD5E90032013600BA01EB2C4AF1B267
:1036000003EB204002EB2E4B4145C5E9000BC5F80A
:1036100008A0C2D304E000BFD5E9000BD5F808A08C
:10362000C117090441EA1041000483220023002746
:10363000FCF778FDDDF8048000234246FCF772FDBC
:1036400028604FEAEB70000440EA1B414FEA0B4050
:1036500083220023FCF766FD42460023FCF762FD4F
:1036600068604FEAEA70000440EA1A414FEA0A40F3
:1036700083220023FCF756FD42460023FCF752FD4F
:10368000A860D4E90006A568C117490141EAD061E4
:10369000400142460023FCF745FD2060F017400141
:1036A00040EAD661700142460023FCF73BFD6060B2
:1036B000E817400140EAD561680142460023FCF763
:1036C00031FD4FF480310028C4BF0021CFF6FF71D7
:1036D0000844A060384605B0BDE8F08F90F90010AE
:1036E00000290DDD002190F90320002A10DD0022C1
:1036F00090F90630002B13DD00201143084370477A
:1037000018D490F9011000291EDD0121EBE700BF5C
:1037100012D490F90420002A1EDD0822E8E700BF39
:103720000CD490F90730002B1EDD402011430843D4
:10373000704700BF0421D6E72022D9E74FF48070FC
:1037400011430843704700BF18D490F902100029B4
:103750001EDD0221C7E700BF12D490F90520002A20
:103760001CDD1022C4E700BF0CD490F9080000282B
:103770001ADD802011430843704700BF0521B2E7DE
:103780002822B5E74FF4A07011430843704700BFEB
:103790004FF0060108BF0721A5E700BF4FF0300238
:1037A00008BF3822A4E700BF4FF4C07008BF4FF431
:1037B000E07011430843704790B0FDF78BFB002485
:1037C0000120CDE90B44CDE9094406900A904FF45D
:1037D000E0104FF4803102250F9006A8CDE90714C0
:1037E000CDE90D51FDF724FD20B1EFF3108072B645
:1037F000FEE700BF0F20CDE901054FF48060CDE961
:10380000040401A802210394FDF70AFC20B1EFF3A0
:10381000108072B6FEE700BFFFF70EF8FFF770F8F2
:10382000FFF7A6F8FFF7C4F8FEF7A6FE00F060F970
:1038300050B109A40A20FDF70FFA204602F092FDCC
:1038400000F056F90028F5D140F2D000C2F2000095
:10385000FDF7B6FFFEE700BF4552524F520D000084
:1038600070470000F0B581B040F21005C2F20005CB
:1038700095F8301021B10024204601B0F0BD00BF02
:10388000A97D69B300F0FE0739402E7FCC1B95F867
:10389000200018BF4FF0FF34002F297708BF002801
:1038A00024D0687F78B901208DF80200D5E9031093
:1038B0000DF102030078C97B0122FEF77DFF10B9EC
:1038C0009DF802006877002FD6D000F097FC002802
:1038D0001CBF2E774FF0FF34204601B0F0BD00BF73
:1038E0004FF0FF34204601B0F0BD00BF00208DF83E
:1038F0000300D5E903100DF103030078C97B012211
:10390000FEF75AFF0028B7D19DF8030068772046DC
:1039100001B0F0BD2DE9F04F8FB005460DF12A0042
:1039200014460E460DF1290700900DF132000BA947
:1039300006AA0EAB0197FFF731FA18B101200FB0BC
:10394000BDE8F08FBDF82A00C00503D402200FB0F7
:10395000BDE8F08F06980594079C0496DDE908679A
:10396000FCF7D1FE4FF04251FCF79DFC804620460B
:10397000FCF7C9FE4FF04251FCF795FC83463046F8
:10398000FCF7C1FE4FF04251FCF78DFC044638466F
:10399000FCF7B9FE4FF04251FCF785FC81465846D2
:1039A0004FF04041FCF77FFC824640464146CDF84F
:1039B0000C80FCF720FC21468046FCF774FC064690
:1039C00050464946FCF76FFC3146FCF714FCFCF707
:1039D000C1FE02F0B1F94AF26663C4F24C034FF043
:1039E0006632FCF777FDFCF7C8FE286020462146CA
:1039F000FCF701FC064640465946FCF754FC0546D8
:103A000030464946FCF74FFC2946FCF7F4FBFCF72F
:103A1000A1FE05460F4620463146FCF744FC06460B
:103A200050465946FCF73FFC3146FCF736FC4FF058
:103A30007E51FCF7E0FBFCF78DFE02460B46284664
:103A4000394602F0C1FB4AF26668C4F24C084FF0F6
:103A500066324346FCF73EFDFCF78FFE0499039F58
:103A6000086038464946FCF71EFC05465846214684
:103A7000FCF719FC2946FCF7BEFB0146FCF7BBFB33
:103A8000FCF768FE05468A4658465946FCF70BFC8B
:103A9000064638463946FCF706FC3146FCF7ABFBD8
:103AA000064620462146FCF7FEFB01463046FCF761
:103AB000F4FB044648464946FCF7F5FB0146204620
:103AC000FCF7EBFBFCF746FE02460B462846514648
:103AD00002F07AFB4FF066324346FCF7FBFCFCF742
:103AE0004CFE0599086000200FB0BDE8F08F000083
:103AF00070B582B000F0B4F810B10A2002B070BD09
:103B0000782001F0FBFA000602D0012002B070BD5F
:103B100040F21004C2F2000494F8300040B1C82012
:103B200001F048FA000621D0032002B070BD00BFAA
:103B3000A07D98B3617F257F00F07806267779B95C
:103B400001208DF80700D4E903100DF10703007878
:103B5000C97B0122FEF730FE10B99DF8070060779F
:103B600000F04CFBC0B1257718E000BFFFF70AF961
:103B7000000603D0042002B070BD00BF40F2100068
:103B8000C2F20000FFF7AAFDFFF7F4FA000609D021
:103B9000052002B070BD00BF782EC0D0022002B058
:103BA00070BD00BF40F27310FEF79CFF000603D00B
:103BB000062002B070BD00BFC820FFF741FA000622
:103BC00002D0072002B070BD01F040FB012001F0DF
:103BD00033F9C0B2002818BF092002B070BD000040
:103BE00040F21001C2F200014A7D032A84BF4FF067
:103BF000FF30704740F20243D200C1F20803D340C5
:103C00000370C97F002904BF0020704740F60401FB
:103C1000C2F21001D14001700020704740F2100242
:103C2000C2F20002517D032984BF4FF0FF3070477C
:103C300007A3D27F33F81130002A038004BF00208D
:103C4000704705A232F8111001800020704700BFB4
:103C500000409C1F001000080020CE0F0008000448
:103C600010B582B040F210048020C2F200048DF83A
:103C70000100D4E903100DF101030078897C0122D1
:103C8000FEF79AFD002840F08D806420FCF7E4FFE9
:103C900000208DF80100D4E903100DF10103007834
:103CA000897C0122FEF788FD00287BD1D4E903102E
:103CB0000DF101030078897D0622FEF7EBFC002858
:103CC00070D19DF806109DF802009DF8042089002F
:103CD00062F3410100F00100084410F0070003D036
:103CE000022822D1002021E0D4E903100DF10103C4
:103CF0000078C9780122FEF7CDFC002852D19DF84A
:103D0000010000F00F0004280CD00028EAD147F28F
:103D10001510C0F6000002F025FB4FF0FF342046DE
:103D200002B010BD26A002F01DFB0120E0774FF687
:103D3000FF706083FF202077A0774FF0FF30606135
:103D40000020C4E90800A062A085C4F82F0084F810
:103D5000330018208DF80700D4E903100122007801
:103D60008979227684F82E200DF107030122FEF7CF
:103D700023FDB8B99DF80700C0082075022000F0A7
:103D800095FF78B92A2001F0C7F858B9322001F020
:103D900011F938B90020FFF765FD18B9002000F0CF
:103DA000D3FF28B14FF0FF34204602B010BD00BF52
:103DB0000020002401F0A2F9204602B010BD00BF8F
:103DC00048616C662073656E73697469766974798D
:103DD000207061727420666F756E642E00000000A2
:103DE0002DE9F04F89B0074600294FF0FF3000F071
:103DF000908040F21009C2F20009884699F831100B
:103E0000002940F08680002FCDE9003267D00024E1
:103E10004FF0000ACDF80880A7EB040B99F81600C4
:103E2000BBF1100FA8BF4FF0100B002865D0D9F8D8
:103E300010005FFA8AF11FFA8BF342895E189AFA32
:103E40008AF196424FEA11410393ADF8221054D8FB
:103E5000D9F80C100078097E02220DF12203FEF73A
:103E6000ABFC002849D1D9E9031044440078497DCE
:103E70005FFA8BF8424623464D46FEF79DFCE0BBB9
:103E8000A87DD0B328691FFA8AF142892B46090A16
:103E900096428DF822108DF823A02ED8D96800788C
:103EA000097E02220DF12203FEF786FC28BBD9E928
:103EB00003100DF112050078497D42462B46FEF7AE
:103EC000E9FBD0B9039A20462946FCF787F918BBCD
:103ED000DA441FFA8AF4DDF80880BC429CD30198CA
:103EE0000DF1220340BAADF82200D9E903100222F5
:103EF0000078897EFEF760FC20B14FF0FF3009B0FA
:103F0000BDE8F08F012089F831000098A9F832004F
:103F1000002009B0BDE8F08F6FF0010009B0BDE8E6
:103F2000F08F000070B584B0282800F2E08040F2E5
:103F3000100504460028C2F2000543D095F82F0072
:103F400001281FD0A87F95F82E103222002808BF24
:103F500030228DF80A2039B16FF04D01002808BFDA
:103F60006FF04F018DF80A10D5E903100DF10A0327
:103F70000078097D01220126FEF71EFC002808BFFB
:103F800085F82F602020012C8DF8070052D1A87DE4
:103F900000218DF8081090B1E87D062106288DF8E3
:103FA0000B100CD0D5E903100DF10B0300788978C4
:103FB0000122FEF701FC10B99DF80B00E8750720FF
:103FC00089E000BF95F82F0000B3A87F95F82E1068
:103FD0000246002818BF012252008DF8092039B18D
:103FE0006FF07D01002808BF6FF07F018DF8091088
:103FF000D5E903100DF109030078097D0122FEF7D0
:10400000DBFB002804BF002085F82F004FF4E060A0
:10401000ADF80700D5E903100DF107030078897C9E
:104020000222FEF7C9FB002861D1002085F820009C
:1040300004B070BD052C19D8A87D01218DF8081099
:1040400088B1E87D062106288DF80C100BD0D5E943
:10405000031003AB007889780122FEF7ADFB10B99D
:104060009DF80C00E875472035E000BF142C19D8E6
:10407000A87D02218DF8081090B1E87D0521052862
:104080008DF80D100CD0D5E903100DF10D0300785B
:1040900089780122FEF790FB10B99DF80D00E875B4
:1040A000872018E0A87D03218DF8081090B1E87DE5
:1040B000042104288DF80E100CD0D5E903100DF161
:1040C0000E03007889780122FEF776FB10B99DF87F
:1040D0000E00E875C7208DF80800D5E903100DF132
:1040E00007030078897C0222FEF766FB20B14FF0BF
:1040F000FF3004B070BD00BF95F830100820A875DF
:10410000002000294FF00101287685F8201001D009
:1041100004B070BD697F287779B901208DF80F0050
:10412000D5E903100DF10F030078C97B0122FEF7DA
:1041300043FB10B99DF80F006877002004B070BDF4
:104140002DE9F04182B040F21007C2F200070E469E
:1041500097F83010054600294FF0FF3042D0B97D66
:1041600000293FD0D7E9031014460078897A0DF171
:1041700006030222FEF78EFA20B14FF0FF3002B0A4
:10418000BDE8F081BDF80600000490FA80F8A8456B
:1041900006D2002020704FF0FF3002B0BDE8F08161
:1041A00038694188B8EB510F0ED9F9680078497C1D
:1041B0000DF106030122FEF76DFA0028DDD19DF80E
:1041C0000600C00612D43869F9680078C97AEAB2E4
:1041D0003346FEF75FFA0028CFD1B8FBF5F001387F
:1041E0002070002002B0BDE8F08100BF00F006F8AA
:1041F0006FF0010002B0BDE8F081000010B582B0A0
:1042000040F21004C2F20004A07D00B300208DF83B
:104210000700D4E903100DF107030078C97B0122E0
:10422000FEF7CAFA98B9D4E903100DF10703007834
:1042300049790122FEF7C0FA48B9D4E903100DF11B
:104240000703007809790122FEF7B6FA20B14FF092
:10425000FF3002B010BD00BF94F83000002845D0F8
:104260000C208DF80700D4E903100DF10703007846
:1042700009790122FEF7A0FA0028E8D13220FCF7E4
:10428000EBFCA07D0DF10703C0076FF01F0008BF16
:104290006FF03F008DF80700D4E903100122007889
:1042A0000979FEF789FA0028D1D1607F0DF1070363
:1042B000002818BF012040008DF80700D4E9031042
:1042C00001220078C97BFEF777FA0028BFD10020D1
:1042D0008DF80700D4E903100DF107030078497940
:1042E0000122FEF769FA0028B1D145E004208DF8DB
:1042F0000700D4E903100DF10703007809790122C2
:10430000FEF75AFA0028A2D1A07DA17FC0074FF086
:10431000600008BF4020002918BF40208DF807002A
:10432000D4E903100DF10703007809790122FEF7A3
:1043300043FA00288BD13220FCF78EFC607F0DF110
:104340000703002818BF01208DF80700D4E90310E7
:1043500001220078C97BFEF72FFA00287FF477AF9F
:10436000D4E9031004F11C03007849790122FEF717
:1043700023FA00287FF46BAF002002B010BD0000CC
:104380002DE9F04F93B040F2100AC2F2000A9AF8F9
:1043900030408946054614B1002000F04DFD9AF8E2
:1043A000140003280CD8FA22DFE800F014021228C7
:1043B0004FF4FA729AF815000B9203280FD924E0F3
:1043C00000229AF815000B92032808D91DE000BFBF
:1043D0004FF47A729AF815000B92032815D80FF64D
:1043E000BC029AF81F3002EB80020FF6A001002BEE
:1043F00008BF01EB80021068023808E04FF4FA624F
:104400009AF815000B920328E9D96FF001000A9081
:104410009AF817000138C1B205291BD800F03F00F7
:10442000B0FA80F1490909910321C14001F001016D
:1044300007910721C14001F0010106910F21C14000
:1044400001F0010105911F2121FA00F000F00100A7
:1044500009E000BF0020099000200790002006908E
:104460000020059000200490BAF81A809AF816707F
:104470009AF81C60284649460022FEF795FF48B18D
:104480002846494600224FF0000BFEF78DFF00281A
:1044900040F04B830FA80CA901220895FEF784FF7A
:1044A00040B10FA80CA90122FEF77EFF10B14FF01A
:1044B000000B3AE3DAF8100012AB00780D21042269
:1044C0000397CDE90164FEF7E5F8CDF8008058B315
:1044D000D9F800000C99401A48BF4042FCF713F984
:1044E0004FF05E51FBF7DFFE044628460021FCF743
:1044F000FCF8002846D120462946FBF706FF00219C
:10450000CBF68071FBF777FE45F6294120F000409D
:10451000C3F60F61FCF7BFF800280CBF4FF001088D
:104520004FF0000842E000BF9DF848009DF84B6046
:104530009DF849201C259DF84A3005EAD000C6F3B5
:104540000111091805EAD200C6F3810200EB020747
:1045500005EAD30B06F0030400F0D680B1F10108A0
:1045600000F0E68018F00302A1F1020000F0EA80FA
:10457000012A40F0F1804FF6AD75C3F6B365804671
:10458000F9E000BF49F69A11C3F699612046FCF79D
:1045900090F843F233310546C3F673712046FCF7B9
:1045A00096F855EA000818BF4FF00108D9F8040042
:1045B0000D99401A48BF4042FCF7A5F84FF05E51F4
:1045C000FBF771FE054630460021FCF78EF8A8B9CE
:1045D00028463146FBF799FE0021CBF68071FBF7A8
:1045E0000AFE45F6294120F00040C3F60F61FCF7B2
:1045F00052F8002808BF08F1020815E043F23331F1
:10460000C3F67371284608F10204FCF760F849F616
:104610009A110028C3F69961284618BFA046FCF7F6
:1046200048F8002818BFA046D9F808000E99401A8B
:1046300048BF4042FCF767F84FF05E51FBF733FE8E
:10464000044638460021FCF750F8A8B92046394600
:10465000FBF75BFE0021CBF68071FBF7CCFD45F646
:10466000294120F00040C3F60F61FCF714F8002840
:1046700008BF08F1040815E043F23331C3F6737143
:10468000204608F10405FCF722F849F69A110028A3
:10469000C3F69961204618BFA846FCF70AF800281F
:1046A00018BFA846DAF81000039F0078089C12ABE8
:1046B0000D210322FDF7EEFF10B1072629E200BF0E
:1046C00020680F999DF84820401A48BF40429DF845
:1046D00049709DF84A9002F01F05FCF714F84FF05E
:1046E0005E51FBF7E0FD044685B16E1E26D016F044
:1046F0000301A5F102002BD0012977D143F2333118
:10470000C4F2D11106467FE000254EE00021C4F23C
:1047100020112046FBF7CDFF00210546C4F2D2212F
:104720002046FBF7D4FF55EA000618BF012696E0A5
:1047300041F27B45C3F6AE6537E000BF0021C4F20D
:10474000C81178E041F27B45C3F6AE6513E000BFC7
:104750000021C4F2C81157E047F25E25A1F1040818
:10476000C3F6C065022A08BFA1F1030804BF41F6E1
:104770006365C3F6BA65032817D345F61D26C3F64D
:10478000847600BF28463146FBF78DFD3146FBF7A6
:104790008AFD3146FBF787FD3146FBF784FDA8F122
:1047A00004085FEA08610546ECD10BEB04087FB111
:1047B0007C1E0FD014F00301A7F1020010D00129D4
:1047C00040F088804FF6AD76C3F6B36604468EE0BF
:1047D0000026A4E041F27B46C3F6AE669FE000BF30
:1047E00041F27B46C3F6AE6681E000BF02294EF27D
:1047F0009A31A5F10406C4F2E41108BFEE1E04BF0D
:104800004DF2BD21C4F2DA11032814D34EF254350F
:10481000C3F6857508462946FBF745FD2946FBF793
:1048200042FD2946FBF73FFD2946FBF73CFD043ED0
:1048300031060146EED12046FBF767FD0021CBF69D
:104840008071FBF7D8FC45F6294120F00040C3F603
:104850000F61FBF720FF00280CBF012600260898F7
:104860001099406807F01F05401A48BF4042FBF707
:104870004AFF4FF05E51FBF716FD044675B16F1EFF
:1048800020D017F00301A5F102001FD0012969D142
:1048900043F23331C4F2D111074671E00021C4F272
:1048A000D2212046B51CFBF712FF00210028C4F2DC
:1048B0002011204618BF2E46FBF7FBFE002818BF2C
:1048C0002E4687E00021C4F2C81170E00021C4F236
:1048D000C81155E047F25E263C1FC3F6C0660229A8
:1048E00008BFFC1E04BF41F66366C3F6BA66032820
:1048F00015D345F61D27C3F6847700BF30463946E9
:10490000FBF7D1FC3946FBF7CEFC3946FBF7CBFC75
:104910003946FBF7C8FC043C21060646EED1B8F147
:10492000000F11D0B8F1010410D014F00301A8F168
:10493000020011D0012940F08B804FF6AD77C3F60D
:10494000B367044693E000BF0027C1E541F27B470F
:10495000C3F6AE67BCE500BF41F27B47C3F6AE6766
:1049600085E000BF02294EF29A31A5F10407C4F296
:10497000E41108BFEF1E04BF4DF2BD21C4F2DA11ED
:10498000032814D34EF25435C3F6857508462946DC
:10499000FBF789FC2946FBF786FC2946FBF783FCDD
:1049A0002946FBF780FC043F39060146EED120463C
:1049B000FBF7ABFC0021CBF68071FBF71CFC45F646
:1049C000294120F00040C3F60F61FBF764FE002888
:1049D00008BF0236DDF820B01199DBF8080009F0B5
:1049E0001F05401A48BF4042FBF78DFE4FF05E5155
:1049F000FBF759FC04467DB16F1E21D017F003016F
:104A0000A5F1020020D001294AD143F23331C4F28A
:104A1000D111074652E000BF0021C4F2D221204646
:104A2000351DFBF754FE00210028C4F2201120465A
:104A300018BF2E46FBF73DFE002818BF2E4667E044
:104A40000021C4F2C81150E00021C4F2C81135E0C1
:104A500047F25E27A8F10404C3F6C067022908BF25
:104A6000A8F1030404BF41F66367C3F6BA670328DD
:104A7000FFF42EAD45F61D28C3F68478384641462E
:104A8000FBF711FC4146FBF70EFC4146FBF70BFC24
:104A90004146FBF708FC043C21060746EED117E52A
:104AA00002294EF29A31A5F10407C4F2E41108BFBD
:104AB000EF1E04BF4DF2BD21C4F2DA11032814D356
:104AC0004EF25435C3F6857508462946FBF7EBFBD5
:104AD0002946FBF7E8FB2946FBF7E5FB2946FBF7F0
:104AE000E2FB043F39060146EED12046FBF70DFC00
:104AF0000021CBF68071FBF77EFB45F6294120F0C3
:104B00000040C3F60F61FBF7C6FD002808BF04365E
:104B1000039FB6FA86F04FEA501BB8F1000F08BFAA
:104B20000BF1020B029CDDE900864FF6FF70AAF83C
:104B30001A00FF200B998AF81C004FF0FF30CAF8CA
:104B400014000120B1F57A7F8AF8180006DAFA29F4
:104B50000AD0B1F5FA7F1ED1082008E006D0B1F5E1
:104B6000FA6F18D1182002E0002000E010208DF824
:104B70004800DAE9031012AB007889790122FDF7C9
:104B80001BFE20B99DF84800C0088AF814009AF866
:104B90001600002868D00A984FEA7000072837D816
:104BA000DFE800F0040C36163636362000208DF88B
:104BB00048009AF8151081421CD129E008208DF890
:104BC000480001209AF81510814213D120E000BF5F
:104BD00010208DF8480002209AF81510814209D162
:104BE00016E000BF18208DF8480003209AF8151031
:104BF00081420DD0DAE9031012AB0078C9790122A5
:104C0000FDF7DAFD20B99DF84800C0088AF81500C4
:104C10009AF8160040B3099810B1012011E000BFC6
:104C2000079808B102200CE0069808B1032008E0BC
:104C3000059808B1042004E0049800280CBF062061
:104C400005209AF817108DF8480081420CD0DAE957
:104C5000031012AB007889780122FDF7ADFD18B979
:104C60009DF848008AF81700404600F0A3F938463E
:104C700000F044FA3046FEF7F5FD14B1012000F0D3
:104C8000DBF8584613B0BDE8F08F00BF020000000B
:104C900004000000080000001000000004000000F4
:104CA00008000000100000002000000010B582B0D5
:104CB00040F21004C2F20004A17D00292DD0023878
:104CC0004FEA700107294FF0FF303AD8DFE801F0D2
:104CD000040C39143939392A00208DF80700617D18
:104CE000814226D00FE000BF08208DF80700012088
:104CF000617D81421DD006E010208DF80700022062
:104D0000617D814215D0D4E903100DF107030078CD
:104D1000C9790122FDF750FD70B14FF0FF3002B0AC
:104D200010BD00BF18208DF807000320617D81426F
:104D3000E9D1002002B010BD9DF80700C0086075E1
:104D4000002002B010BD0000B0B582B040F21005E6
:104D5000C2F20005A97F814202D1002002B0B0BD9D
:104D60000446D5E903100DF1070300780979012203
:104D7000FDF790FC94B3002846D19DF807000DF193
:104D8000070300F0DF008DF80700D5E903100122CA
:104D900000780979FDF710FDB0BB0320FBF75CFF3D
:104DA00095F82E1095F82F206FF07D00002908BF90
:104DB00002208DF807001AB140F030008DF807008E
:104DC000D5E903100DF107030078097D0122FDF7F5
:104DD000F3FCC8B9AC77002002B0B0BDA0B99DF813
:104DE0000700A97D00F0DF0001F0010140EA411059
:104DF0008DF80700D5E903100DF107030078097954
:104E00000122FDF7D9FC18B14FF0FF3002B0B0BD60
:104E10000320FBF721FF95F82E0095F82F1002468E
:104E200000281CBF01226FF07F00D20100298DF8FD
:104E30000720C1D1C4E70000B0B582B040F2100431
:104E4000C2F2000494F8301081425DD0D0B394F8DF
:104E5000310000285CD009B9A07D78B100208DF820
:104E60000500D4E903100DF105030078C97B012288
:104E7000FDF7A2FC10B99DF8050060770020002521
:104E8000FFF762FF608E00F095F820698DF80450FE
:104E9000007801AB232101220125FDF78DFC0220C2
:104EA0008DF80600D4E903100DF106030078C97BE4
:104EB000012284F83050FDF77FFC18BB9DF80600F6
:104EC00060771FE009B9A07D78B100208DF8070058
:104ED000D4E903100DF107030078C97B0122FDF727
:104EE0006BFC10B99DF807006077207F21698DF871
:104EF0000400087801AB23210122FDF75DFC0020AE
:104F000084F83000FFF77AF9002002B0B0BD00BF8E
:104F10004FF0FF3002B0B0BD10B582B040F21004C7
:104F2000C2F20004A17DD1B3BC2807D30120E17DEA
:104F30008DF8070081423AD027E000BF622807D3EE
:104F40000220E17D8DF80700814230D01DE000BFD6
:104F50002A2807D30320E17D8DF80700814226D05F
:104F600013E000BF142807D30420E17D8DF807006B
:104F700081421CD009E000BF0A2834BF062005206A
:104F8000E17D8DF80700814211D0D4E903100DF1C5
:104F90000703007889780122FDF70EFC20B14FF05D
:104FA000FF3002B010BD00BF9DF80700E075002083
:104FB00002B010BD70B582B040F21005C2F200051B
:104FC000A97D044600294FF0FF3000F0948095F849
:104FD0003010002940F08F8095F8200000283ED046
:104FE000601E80B2272805D8E0B2FEF79BFF0020A4
:104FF00002B070BD95F82F0000B3A87F95F82E1071
:105000000246002818BF012252008DF8062039B14F
:105010006FF07D01002808BF6FF07F018DF806104A
:10502000D5E903100DF106030078097D0122FDF793
:10503000C3FB002804BF002085F82F004FF4E06078
:10504000ADF80400D5E9031001AB0078897C022299
:10505000FDF7B2FB002804BF002085F820004FF4C4
:105060007A76B4F57A7F28BF3446042C98BF04249E
:10507000B6FBF4F00DF1030301388DF80300D5E918
:105080000310012200784978FDF796FB20B14FF01C
:10509000FF3002B070BD00BF9DF80300AA7D411C27
:1050A000B6FBF1F169832AB3012801D801200FE092
:1050B000042801D802200BE00A2801D8032007E0C9
:1050C000182801D8042003E031288CBF06200520D1
:1050D000E97D8DF8070081420CD0D5E903100DF170
:1050E0000703007889780122FDF766FB10B99DF867
:1050F0000700E875002002B070BD0000B0B582B0B6
:10510000044610F0700F01D0012003E0002C0CBF0A
:105110004020002040F21005C2F200058DF8060084
:10512000D5E903100DF106030078897C0122FDF713
:1051300043FBF8B99DF80600A10600F0BF024FF04E
:10514000040020EA141058BF0230C4F300110844D0
:1051500080F00100210758BF38308DF80600D5E9EE
:1051600003102A760078C97C0DF106030122FDF7B1
:1051700023FB38B10020A8754FF0FF34204602B061
:10518000B0BD00BF14F0F70F23D095F82F0000B387
:10519000A87F95F82E100246002818BF0122520061
:1051A0008DF8072039B16FF07D01002808BF6FF03E
:1051B0007F018DF80710D5E903100DF10703007882
:1051C000097D0122FDF7F8FA002804BF002085F8C8
:1051D0002F00AC750024322085F82040FBF73CFD01
:1051E000204602B0B0BD000070B582B00D46014649
:1051F0004FF0FF3042B340F21006C2F200061446F0
:10520000B27D0AB330694ABAC9B243892944994286
:10521000ADF8062008D8F1680078097E0DF1060384
:105220000222FDF7C9FA18B14FF0FF3002B070BD8D
:10523000D6E90310EAB20078497D2346FDF7BCFAAF
:10524000002818BF4FF0FF3002B070BDF0B587B036
:1052500004A801A9FFF794F8072811D140F210071C
:10526000C2F20007387D03280ED0022812D0002495
:1052700001280CBFC4F28324C4F203340EE000BF43
:10528000012007B0F0BD00BF43F23334C4F28314F1
:1052900004E000BF43F23334C4F20324DDE9040622
:1052A000069DFBF730FA01462046FAF7FCFFFBF7B4
:1052B00038FA04903046FBF726FA01462046FAF702
:1052C000F2FFFBF72EFA05902846FBF71CFA014681
:1052D0002046FAF7E8FFFBF724FA069004A8FDF74A
:1052E000E7FE787D03280BD811A2FB7F02EB80023A
:1052F0000BA1002B08BF01EB8002106801E000BF8A
:10530000002001AB0ECB4143019102FB00F1584359
:10531000039001A80291FDF733FE002007B0F0BD15
:10532000004000009C1F000000100000000800006A
:1053300000200000CE0F0000000800000004000064
:105340000FB4054B10B503A9044A029800F05CF9AC
:1053500010BC5DF814FB000085330008000000203D
:10536000490050EAC12018BF04204A0D18BF40F080
:10537000010040F2FF72B2EB515F08BF40F0020043
:10538000012808BF052070472DE9F0414F1E00EBB2
:10539000C7010446D1E9000115461E4637F0060252
:1053A0000DD02A463346FBF795F87F1E04EBC70362
:1053B000D3E90023FAF7E7FF37F00602F1D1022F15
:1053C00025D0042F13D0062F18BFBDE8F0812A4640
:1053D0003346FBF77FF8D4E90A23FAF7D4FF2A46CD
:1053E0003346FBF777F8D4E90823FAF7CCFF2A46CF
:1053F0003346FBF76FF8D4E90623FAF7C4FF2A46D1
:105400003346FBF767F8D4E90423FAF7BCFF2A46D2
:105410003346FBF75FF8D4E90223FAF7B4FF2A46D4
:105420003346FBF757F8D4E90023BDE8F041FAF71B
:10543000AABF0122FBF7B9BAFAF7A5BF00221346AB
:1054400010461146FBF7B8B8024A00201107FBF7D7
:10545000ACBA000001FDFFFF02E008C8121F08C13E
:10546000002AFAD170477047002001E001C1121FE5
:10547000002AFBD170470000014908607047000016
:10548000040000202DE9FF5F82B00021DDE9043037
:10549000020DDDF840B0034318D044F61050A2F2DC
:1054A000FF3242431514119801281FD0A5EB0B00C1
:1054B000401C5FEA000A4FF000064E4FDFF83891BB
:1054C000B046504615D5CAF1000413E011980124E6
:1054D0004AA3012801D16FEA0B010298119AC0E991
:1054E0000031C0E9024206B0BDE8F09FCBF10000F8
:1054F000DFE704460021404A491842EB0450CDE959
:10550000001012E0E00707D032463B4640464946CD
:10551000FAF7E0FF8046894632463B461046194678
:10552000FAF7D8FF06460F466410002CEAD1DDE9F1
:105530000401DDE90023BAF1000F06DAFAF7CAFF29
:1055400042464B46FAF7C6FF05E0FBF735F8424600
:105550004B46FBF731F804460E460022284BFBF77A
:105560006BFA03D84FF0FF30014607E00022254BCD
:1055700020463146FAF707FFFBF72EFA102409E020
:10558000002C0ADB0A220023FBF729F9039B3032A7
:105590001A55641E50EA0102F2D1641C039AC4F148
:1055A00011031444119A012A03D0012208430DD19A
:1055B0000AE0084304D000204FF0110B119072E76D
:1055C000A3EB0B056D1E0DE05B4504DD4FF0000203
:1055D00005F1010504E003DA4FF00002A5F1010531
:1055E000002AECD002981199C0E90231C0E90045C7
:1055F00079E70000000014400000F03F3000000098
:105600000000F0430000E03F2DE9FF4F95B09B46BE
:105610008946064600250FE2252877D10024274633
:10562000F84A0121059400E0044316F8013F203BAD
:1056300001FA03F01042F7D130782A2811D06FF028
:105640002F033078A0F13002092A16D8059A44F0C9
:10565000020402EB820203EB42021044761C059026
:10566000EFE759F8042B0592002A03DA504244F47C
:105670000054059044F00204761C30782E2816D190
:1056800016F8010F44F004042A280DD06FF02F0201
:105690003078A0F13003092B09D807EB870302EB20
:1056A0004303C718761CF3E759F8047B761C30785F
:1056B0006C280FD006DC4C2817D068280DD06A283B
:1056C00014D104E0742810D07A280FD10DE044F4EE
:1056D00000140AE044F4801401E044F440147278A9
:1056E000824202D104F58014761C761C307866283C
:1056F0000BD013DC582877D009DC002875D045285A
:10570000F6D04628F4D047281AD19DE118E0632846
:1057100035D0642879D0652812D195E1702873D0EE
:1057200008DC6728F1D069286FD06E280DD06F286B
:1057300006D1B5E073282CD0752875D0782874D0A0
:105740005A46179990476D1C75E1C4F30250022820
:1057500009D003280DD0D9F8001004280DD00D6011
:1057600009F1040967E1D9F80010EA17C1E900520C
:10577000F6E7D9F800100D80F2E70D70F0E719F8A0
:10578000041B8DF8001000208DF80100EA4601206E
:1057900003E059F804AB4FF0FF3061074FF0000110
:1057A00002D40DE008F101018846B9420FDA8045C4
:1057B000F8DB1AF808100029F4D108E008F101011B
:1057C00088468142FADB1AF808100029F6D10598BC
:1057D0005B46A0EB080721463846179A00F094FA7A
:1057E000284400EB080507E04DE029E10DE01AF838
:1057F000010B5A4617999047B8F10108F7D25B465A
:1058000021463846179A13E142E00A220092C4F377
:1058100002524FF0000A022A08D059F804CB032A9A
:105820004FEAEC710AD00DE029E02AE009F1070106
:1058300021F00702F2E802C1914609E00FFA8CFC60
:105840004FEAEC71042A03D14FFA8CFC4FEAEC7159
:10585000002907DA0A460021DCF1000C61EB0201A5
:105860002D2202E0220504D52B228DF804200122EE
:1058700003E0E20701D02022F7E7904659E00A2131
:1058800002E010220DE010214FF0000A00910BE021
:1058900010224FF0000A44F004040827009203E0AD
:1058A00008224FF0000A0092C4F30252022A05D0E7
:1058B00059F804CB0021032A08D009E009F10701B7
:1058C00021F00702F2E802C1914605E01FFA8CFCC4
:1058D000042A01D10CF0FF0C4FF00008220728D554
:1058E000702806D0009B83F0100353EA0A0305D00A
:1058F0000EE040228DF80420012208E05CEA01025B
:1059000006D030228DF804208DF805000222904642
:10591000009B83F0080353EA0A030AD15CEA010200
:1059200001D1620705D530228DF804204FF001081F
:105930007F1E582804D034A003900EA802900DE0DA
:1059400036A0F9E753466046009AFAF748FF8446C6
:105950000398825C0298401E029002705CEA01008B
:10596000F0D1029806A9081A00F1200A600702D5B2
:1059700024F4803400E00127574502DDA7EB0A003C
:1059800000E0002000EB0A01009005984144401A15
:105990000590E00306D45B462146179A059800F06F
:1059A000B3F90544002706E001A85A46C05D1799DF
:1059B00090476D1C7F1C4745F6DBE0030CD55B462A
:1059C0002146179A059800F09FF9054404E030201D
:1059D0005A46179990476D1C0099481E009000295F
:1059E000F5DC08E0029802995A460078491C0291B9
:1059F000179990476D1CBAF10001AAF1010AF1DC78
:105A000065E1000009280100303132333435363782
:105A100038396162636465660000000030313233FA
:105A2000343536373839414243444546000000009A
:105A300000F058F90544761C307800287FF4ECAD6E
:105A400019B02846BDE8F08F620700D4062709F197
:105A5000070222F0070CFCE80223E14603F00048AD
:105A60005FEA080C02D00FF2702C0DE05FEA045CD4
:105A700002D50FF2682C07E05FEAC47C02D00FF277
:105A8000602C01E0AFF2700C4FF0FF3823F00043C0
:105A9000CDF850C065280CD006DC452809D0462832
:105AA0001DD047283DD13DE0662818D067287ED11B
:105AB00038E00021112F01DB112000E0781CCDE936
:105AC000000106A90EA8FFF7DDFCDDE90F010E9A23
:105AD00003910021009207F1010A04914DE04FF07B
