:020000040800F2
:100000008007002001010008B529000879220008B6
:10001000B1290008E10A0008A52A00080000000034
:10002000000000000000000000000000BD290008E2
:10003000E50A000800000000B9290008C1290008ED
:100040001B0100081B0100081B0100081B01000820
:100050001B0100081B0100081B0100081B01000810
:100060001B0100081B0100081B0100081B01000800
:100070001B0100081B0100081B0100081B010008F0
:100080001B0100081B0100081B0100081B010008E0
:100090001B0100081B0100081B0100081B010008D0
:1000A0001B0100081B0100081B0100081B010008C0
:1000B000C92900081B0100081B0100081B010008DA
:1000C0001B0100081B0100081B0100081B010008A0
:1000D0001B010008992A00081B0100081B010008E9
:1000E0001B0100081B0100081B010008DFF80CD0F1
:1000F00000F082FC004800475539000880070020C6
:100100000648804706480047FEE7FEE7FEE7FEE7B1
:10011000FEE7FEE7FEE7FEE7FEE7FEE7C52900088B
:10012000ED0000082DE9F0410024061B254671F181
:10013000000605DA01240027D0EB070067EB010178
:10014000161E73F1000605DA0027D2EB070201251F
:1001500067EB030300F03BFB86460E4617469C46C2
:10016000AC4204D00025D0EB050E65EB010624B1AE
:100170000020D2EB000760EB030C704631463A4694
:100180006346BDE8F081D2B201E000F8012B491EC0
:10019000FBD270470022F6E710B513460A46044624
:1001A0001946FFF7F0FF204610BD30B505462A4638
:1001B0000B4612F8010B13F8014B08B1A042F8D01E
:1001C0001CB1002802D06D1CF1E7284630BD421C4E
:1001D00010F8011B0029FBD1801A704730B5044686
:1001E0000020034600E05B1C934203D2E05CCD5C40
:1001F000401BF8D030BDF0B480EA0102D40F4200B9
:10020000B2EB410F02D20246084611464A0042D0E4
:10021000C30DDDB2C1F3C752AD1A202D35DAC1F3DB
:10022000160141F4000204B15242C5F1200602FA5F
:1002300006F12A411044B3EBD05F23D0C4B1012DA5
:10024000A0EBC35009DCF0BC4FF0004202EAC352FD
:10025000DBB200F5000000F015BB400000F180703B
:1002600000EBC350A0F1807040EAD170490009E072
:10027000490841EAC071A0EBC35000F500004008F6
:1002800000EBC350F0BC00F0F4BA6142012202EB73
:100290004101001BF6E7F0BC704781F00041AAE77E
:1002A00080F00040A7E780EA010210B502F00043A9
:1002B000400022D04A001FD0010E01EB1261C0F3B2
:1002C0005600C2F3560240F4000042F40002A0FBC4
:1002D000022000047F39140400D0401C50EA124070
:1002E00001D44000491EC2B20C0604EBD010401CE1
:1002F0004008802A02D003E0002010BD20F0010059
:10030000002900DA0020184310BD30B480EA010251
:1003100002F0004530F0004221F0004013D090B1CF
:10032000C30DD40DC2F31601C0F31600E41A41F454
:10033000000140F400027D34914201D3641C00E0CE
:100340004900002C02DA30BC002070474FF4000056
:100350000023914201D3891A034340084FEA410127
:10036000F7D151B1914202D14FF0004105E002D2E4
:100370004FF0010101E06FF0010103EBC45028448C
:1003800030BC00F076BA2DE9FE4F804681EA0300CA
:10039000C00F0C46009021F0004123F00045B8EB5F
:1003A0000200A94105D24046214690461C460B4614
:1003B000024623F00040104347D0270DC7F30A0040
:1003C000C3F30A510290401A019040286BDAC3F33C
:1003D000130040F4801B0098924620B10023D2EB1A
:1003E000030A63EB0B0B01985946C0F140025046DB
:1003F00000F01EFA06460D4650465946019A00F096
:1004000026FA10EB08006141002487EA115284EAC1
:10041000E7731A4340D0009A62B3019A012A4FEA67
:10042000075215DC001B61EB02014FF0004202EAAB
:100430000752CDE90042001C41F5801132462B469F
:1004400000F05DFA03B0BDE8F08F40462146F9E7C1
:10045000001B61EB0201001C41F5801300185B4199
:100460002018A2F5001747EB030140EAD570B61932
:100470006D4111E06D084FEA360645EAC0754FEA56
:100480000752001B61EB0201001C41F58011490875
:100490004FEA30000019514132462B4603B0BDE807
:1004A000F04F00F01DBA0098012240000023D0EB6D
:1004B000020263EBE073009821464FEAE074B8EB68
:1004C000000061EB0401E9E783F000435BE781F0A2
:1004D000004158E72DE9FE4F81EA030404F000448F
:1004E00021F0004100944FF0000B23F0004350EA4C
:1004F00001045ED052EA03045BD0C3F30A54C1F393
:100500000A552C44A4F2F3340194A0FB0254C1F325
:10051000130141F48011C3F3130343F4801301FB6F
:10052000024400FB034E840A970A44EA815447EAD6
:100530008357A4FB076802958D0A05FB07854FEAE0
:10054000932C04FB0C542705029D4FEA065847EAFA
:100550001637B5EB08056EEB070C870E920E47EACF
:10056000811742EA8312A7FB0201B6EB0B0164EB91
:1005700000042B0D43EA0C335E1844EB1C50DA46A2
:100580005146E7FB0201C5F313044FEA0B3343EA7C
:1005900014534FEA0432019C43EA0603A4F10C040D
:1005A0000294009CCDE900B400F0A9F903B0BDE8C5
:1005B000F08F00200146F9E72DE9F04D81EA0304B0
:1005C00004F0004B21F0004514464FF0000A23F0E0
:1005D000004150EA050220D054EA01021DD0C5F3C3
:1005E0000A570246C5F31303C1F31300C1F30A56B9
:1005F00040F4801543F48013A7EB0608101BD64681
:1006000008F2FD3873EB050002D308F1010801E0A0
:1006100092185B41B8F1000F03DA00200146BDE8F3
:10062000F08D00204FF48011064684460EE0171B23
:1006300073EB050705D3121B63EB050306434CEA76
:10064000010C49084FEA300092185B4150EA01075B
:10065000EDD152EA030012D082EA040083EA0501D8
:10066000084305D0101BAB4106D20122002306E04F
:1006700000224FF0004302E06FF0010253101AEB2A
:1006800006004CEB085110EB0A0041EB0B01BDE8F2
:10069000F04D00F025B9002801DBC0F10040002931
:1006A00001DBC1F10041814201D8012070470020E7
:1006B0007047002801DBC0F10040002901DBC1F1D7
:1006C0000041814201D2012070470020704700287C
:1006D00001DBC0F10040002901DBC1F10041814292
:1006E00001D30120704700207047002801DBC0F1D2
:1006F0000040002901DBC1F10041814201D9012004
:10070000704700207047002801DBC0F1004000293D
:1007100001DBC1F10041814201D10120704700207D
:100720007047C10F80EAE0700844CA079623002191
:1007300000F0A8B896230022114600F0A3B800F0FC
:10074000004220F00040C10DC0F3160040F400004C
:100750007F2901DA00207047962903DCC1F1960158
:10076000C84001E096398840002AF4D040427047E2
:1007700000F0004230F000400AD0C10D01F5607178
:10078000C0F3160042EA0151C20840071143704706
:1007900000200146704701F0004330B421F00041D1
:1007A00050EA010206D00A0DA2F56072C1F31301EE
:1007B000002A02DC30BC00207047440F44EAC10428
:1007C000C100E01830BC00EBC25000F052B82DE977
:1007D000F05F0546002092469B46884606468146C5
:1007E00040241BE0284641464746224600F016F9C1
:1007F00053465A46C01A914110D311461846224614
:1008000000F016F82D1A67EB01084F46224601202A
:10081000002100F00DF817EB00094E41201EA4F155
:100820000104DFDC484631462A464346BDE8F09FD6
:10083000202A04DB203A00FA02F1002070479140A0
:10084000C2F1200320FA03F3194390407047202A95
:1008500006DBCB17203A41FA02F043EAE07306E0E8
:1008600041FA02F3D040C2F12002914008431946F8
:1008700070470029A8BF7047401C490008BF20F0FE
:100880000100704710B4B0FA80FC00FA0CF050EA96
:10089000010404BF10BC704749B1CCF1200421FA17
:1008A00004F411FA0CF118BF012121430843A3EB12
:1008B0000C01CB1D4FEA00614FEA102042BF00201F
:1008C00010BC704700EBC35010440029A4BF10BCFB
:1008D0007047401C490008BF20F0010010BC704761
:1008E00010B5141E73F1000408DA401C41F1000138
:1008F00092185B411A4301D120F0010010BD2DE98F
:10090000F04D92469B4611B1B1FA81F202E0B0FA85
:1009100080F220329046FFF78BFF04460F4640EAF4
:100920000A0041EA0B0153465A46084313D01146C8
:1009300053EA010019D0C8F14002504600F06EF8A9
:1009400005460E46504659464246FFF771FF08439A
:1009500005D0012004E020463946BDE8F08D002096
:10096000054346EAE0762C4337430A986305E40AD8
:10097000A0EB08000022FD0A44EA47540A3002D5E1
:1009800000200146E9E7010510196941DDE9084544
:1009900000196941BDE8F04DA2E770B521F00043B0
:1009A00003430CD0C1F30A550024D5EB040564EBD6
:1009B0000403D617AD1AB34102DB0020014670BD17
:1009C000201841EB025170BD30B5041E71F10004D6
:1009D00004DB4FF00044404264EB0101141E73F14C
:1009E000000405DB1C464FF00043524263EB040356
:1009F0008B4208BF824230BD064C074D06E0E068DE
:100A000040F0010394E8070098471034AC42F6D355
:100A1000FFF770FBD0700008F0700008202A04DB9C
:100A2000203A21FA02F00021704721FA02F3D04067
:100A3000C2F1200291400843194670472DE9F04D5C
:100A400000231A461B1A8A4103DB00200146BDE839
:100A5000F08DC1F30A52C1F3130141F480154FF038
:100A6000000BD10702D100186D41521E0027044629
:100A700040F2FF11384601EB620A3E4680460246CC
:100A800000204FF48011FFF7C9FFC2197141BB1854
:100A900046EB0100B4EB030C75EB000C04D3E41A35
:100AA00065EB000517460E46241908F101006D415B
:100AB00080463428E3DDF91946EB0600091BA841FE
:100AC00003D24FF0FF32134601E0002213461BEB26
:100AD000070046EB0A51BDE8F04DFFF701BF0000EB
:100AE000FEE7000070470000EFF3108072B600BF11
:100AF000FEE70000014690F82100022816D10868A0
:100B0000D1E90FC3026822F00E020260026822F0EF
:100B100001020260012000FA03F2CCF8042081F8FF
:100B200021000020002281F82020704704208863E3
:100B30000120002281F820207047000080B590F845
:100B40002110022924D10268116821F00E011160E0
:100B50002F211368C4F202018A4240F20401C4F258
:100B6000020123F00103136016DD3023C4F20203F7
:100B70009A421DD04423C4F202039A421CD0582347
:100B8000C4F202039A421DD14FF4803322E000BF29
:100B900004218163012080BD0823C4F202039A422C
:100BA0000ED01C23C4F202039A420BD1102311E091
:100BB0004FF480730EE000BF4FF480530AE000BF93
:100BC000012307E001F1680C4FF08073624508BF14
:100BD0004FF480130B60416B4FF48072028401B1BB
:100BE0008847002080BD0000B0B5044600F026F91B
:100BF000054640F20800C2F200000078611C18BFF0
:100C0000044400BF00F01AF9401BA042FAD3B0BD63
:100C10002DE9F04F82B041F20042C4F201020E68A9
:100C20000423904208BF0323002E009300F0F680B7
:100C300040F20C4E4FF6FF7CC4F2010E002201245C
:100C4000C1F2100C4FF0000A4FF0000943E000BF62
:100C5000012502F00C040F27A7402BEA070705FA2D
:100C600004F43C4343F82640D1F804B040F2004578
:100C7000C4F201055FEACB332B6854BF23EA0803B3
:100C800043EA08032B606B685FEA8B3454BF23EAA6
:100C9000080343EA08036B605FEACB24AB6854BFE8
:100CA00023EA080343EA08035FEA8B24AB60DEF81B
:100CB00000304FF0010454BF23EA080343EA08035D
:100CC000CEF800300E680AF1010A36FA0AF302F192
:100CD000040200F0A38004FA0AF816EA080FF1D023
:100CE0004B68634512DC122B56D8DFE803F0350B56
:100CF0004549555555555555555555555555554DC8
:100D0000510000BFD1F80C9046E000BF4FF6FF77CE
:100D1000C1F22107BB420FDC0027C1F21107BB4221
:100D20001AD00027C1F21207BB4215D00027C1F22A
:100D30002107BB4210D02FE00027C1F22207BB429F
:100D40000AD00027C1F23107BB4205D00027C1F20B
:100D50003207BB4220D100BF8B684BB1012B14BFBF
:100D6000C0F81480C0F810804FF0080914E000BFEC
:100D70004FF0040910E000BFCB6803F108090BE055
:100D80004FF0000908E000BFCB6803F1040903E05D
:100D9000CB6803F10C0900BF13460546BAF1080FF2
:100DA00024BF203B04352E680F279F40BE4309FA1D
:100DB00003F333432B60CB79DB067FF583AF41F23E
:100DC0001804C4F2020423684FEA9A0643F00103B0
:100DD0002360236840F6000403F001030193019BA4
:100DE00040F20043C4F20103A3F57E7353F826B02A
:100DF000C4F20104A0420FD040F60044C4F2010442
:100E0000A0423FF425AF41F20004C4F20104009D6A
:100E1000A04208BF02251CE700251AE702B0BDE882
:100E2000F08F00008068084018BF01207047000064
:100E3000002A08BF090401617047000040F27410E5
:100E4000C2F200000068704740F2080040F27411DE
:100E5000C2F20000C2F2000100780A681044086083
:100E60007047000080B542F20000C4F20200016841
:100E700041F010010160032000F08AF80F2000F01B
:100E800005F800F027F8002080BD000070B540F2A2
:100E90000806C2F2000640F248013278C2F20001B0
:100EA0004FF47A730968B3FBF2F20446B1FBF2F136
:100EB000084600F05FFB0F2C4FF0010508D838B949
:100EC0004FF0FF3021460022002500F035F8746015
:100ED000284670BD82B041F21800C4F202000168D9
:100EE000022241F001010160016801F0010101915C
:100EF0000199416841F080514160406800F08050A4
:100F0000009000980420C4F20100016862F31A61A5
:100F1000016002B070470000002848BF704700F031
:100F20001F01012202FA01F14EF200124009CEF235
:100F3000000242F82010704710B54EF60C5CCEF25D
:100F4000000CDCF80030C3F3022E8EF00704042CF2
:100F500028BF0424BEF103034FF0FF3E0EFA04F451
:100F600038BF0023A14399400EFA03F39A4311437B
:100F700000F00F02043A624409010C3200F16043B0
:100F8000B0F1FF3FC8BF03F56442117010BD00000F
:100F90004EF60C51CEF200010A684FF6FF031A40DC
:100FA00060F30A2242F0806040F0FD7008607047F4
:100FB0002DE9F04381B0002800F0858042F200085E
:100FC000C4F202080446D8F800000D4600F00700FD
:100FD00088420CD2D8F8000020F007002843C8F857
:100FE0000000D8F8000000F00700A8426BD120688C
:100FF00041F204098107C4F2020917D5410705D55A
:10100000D9F8001041F4E061C9F80010010705D5D6
:10101000D9F8001041F46051C9F80010D9F8001057
:10102000A26821F0F0011143C9F80010C00741D1B6
:10103000D8F8000000F00700A8420CD9D8F800004A
:1010400020F007002843C8F80000D8F8000000F09E
:101050000700A84237D12068410707D5D9F800100A
:10106000E26821F4E0611143C9F80010000708D5D7
:10107000D9F80000216920F4605040EAC100C9F8A5
:101080000000D9F8002002F00C00082841F20020EE
:10109000C0F27A0050D146F2C033C2F38341C0F6A9
:1010A0000003595CD2033BD440F60010C0F23D006F
:1010B000484341E0606802280AD001282AD159F843
:1010C000041C890308D4012001B0BDE8F08300BFEF
:1010D00059F8041C8901F6D5D9F8001021F0030154
:1010E0000843C9F80000FFF7A9FE064641F2883719
:1010F000D9F80000616800F00C00B0EB810F97D0C8
:10110000FFF79CFE801BB842F2D9032001B0BDE876
:10111000F08300BF59F8041C8907D4D5DCE700BF71
:10112000D9F8002046F2A033C2F34042C0F60003D3
:101130009A5C4843B0FBF2F0D9F8001046F2A832AE
:10114000C1F30311C0F60002515C40F2480220FADC
:1011500001F140F20C00C2F200000068C2F200028D
:101160001160FFF793FE002001B0BDE8F08300009E
:1011700040F2480041F20401C2F20000C4F2020150
:101180000068096846F2B832C1F30221C0F60002D5
:10119000515CC8407047000040F2480041F2040131
:1011A000C2F20000C4F202010068096846F2B832D7
:1011B000C1F3C221C0F60002515CC8407047000074
:1011C0002DE9F04182B0002868D00446007841F251
:1011D0000006C007C4F2020625D0706800F00C00BB
:1011E00004281BD0706800F00C00082802D1706839
:1011F000C00313D46068002800F06881B0F5A02F08
:1012000000F07C81B0F5803F00F07C81306820F4F4
:1012100080303060306820F4802076E130688003D0
:1012200001D56068D0B32078800718D5706810F0B9
:101230000C0F07D0706800F00C0008286ED17068A1
:10124000C0036BD43068800702D52069012825D1FE
:101250003068616920F0F80040EAC1003060207811
:1012600000071FD42078400732D4E56995B1706833
:1012700000F00C00082840F08F80012D0ED070681F
:10128000216A00F480328A4208D1616A00F4701049
:10129000884203D1002002B0BDE8F081012002B0F5
:1012A000BDE8F081A069002862D00020C4F242208D
:1012B0000121C0F88014FFF7C1FD0546706A800760
:1012C00000F18C80FFF7BAFD401B0228F6D92AE115
:1012D000F06910F0805808D1F06940F08050F0615A
:1012E000F06900F080500090009847F20007C4F2C7
:1012F00000073868C00529D4386840F48070386029
:10130000FFF79CFD054600BF3868C0051ED4FFF7F7
:1013100095FD401B6428F7D905E100BF206900282E
:1013200040F20000C4F2422000F0828001210160FE
:10133000FFF784FD054600BF306880073FF588AFA2
:10134000FFF77CFD401B0228F6D9ECE0E06800289E
:1013500000F08080052800F09780012800F0988038
:10136000306A20F001003062306A20F0040092E020
:101370000020C4F242200021C0F88014FFF75EFD77
:10138000054600BF706A80077FF56CAFFFF756FD1A
:10139000401B0228F6D9C6E00027C4F242270020ED
:1013A0003866FFF74BFD022D05460BD130688001F2
:1013B00040F1BE80FFF742FD401B02284FF00300C2
:1013C000F4D968E7306880017FF564AFFFF736FD38
:1013D000401B02284FF00300F4D95CE740F24800BC
:1013E000C2F20000006844F6D351C1F26201A0FBD2
:1013F0000101480A019000BF00BF0198411E00286A
:1014000001913FF42FAF00BF0198411E00280191C8
:101410003FF428AF00BF0198411E002801913FF41E
:1014200021AF00BF0198411E00280191E4D119E7C6
:1014300000210160FFF702FD054600BF306880070C
:101440007FF50DAFFFF7FAFC401B02284FF00300B9
:10145000F4D920E7306A20F001003062306A20F0D1
:1014600004003062FFF7EAFC054641F2883700BF0E
:10147000306A800720D5FFF7E1FC401BB8424FF0EF
:101480000300F5D907E700BF306A40F0040030627E
:10149000306A40F001003062FFF7D0FC054641F2AF
:1014A000883700BF306A800706D4FFF7C7FC401BAF
:1014B000B842F7D937E000BFB8F1000F7FF4D5AEDE
:1014C000F06920F08050F061CFE600BF306820F472
:1014D00080303060306820F480203060FFF7AEFC50
:1014E000054600BF306880037FF59DAEFFF7A6FC80
:1014F000401B64284FF00300F4D9CCE6306840F478
:1015000080203060306840F480303060FFF796FC17
:10151000054600BF306880033FF585AEFFF78EFCBF
:10152000401B6428F6D9032002B0BDE8F08100BF5B
:10153000206AB0F5803F05D17168A26821F40031BE
:10154000114371607168626A21F474111043084399
:10155000706001203866FFF771FC04463068800136
:101560003FF598AEFFF76AFC001B02284FF003001E
:10157000F4D990E6411E0020B0EB116F1CBF012092
:1015800070474EF21002CEF2000251604EF6235127
:10159000CEF20001F0230B700721906011607047BC
:1015A000704700007047000010B590F83C20012AF9
:1015B0004FF0020233D080F83D200268D2F804E0F8
:1015C000D2F808C00C682EF07003234340F2FF7479
:1015D000C4F20004A24253600ADCB2F1804F13D07F
:1015E00040F20043C4F200039A420DD011E000BF64
:1015F00042F60043C4F201039A4205D040F60003CC
:10160000C4F200039A4204D149682CF080031943C4
:1016100091600121002280F83D1080F83C201046A6
:1016200010BD0000002804BF0120704710B504461B
:1016300090F83D0028B9002084F83C00204600F0D6
:1016400067F8022084F83D00206840F2FF730268CA
:10165000C4F2000342F6004C9842C4F2010C15DCBF
:10166000B0F1804F1AD040F20041C4F2000188422C
:1016700014D0984218DCB0F1804F1DD040F20041E8
:10168000C4F20001884217D01AE000BF604505D0BF
:1016900040F60001C4F200018842EAD1A16822F0BC
:1016A00070020A439842E6DD604505D040F600012D
:1016B000C4F20001884203D1216922F440720A4336
:1016C000A36922F08001D4F804E0E2681943604580
:1016D0000160C262C0F828E002D16169CCF8301024
:1016E00001214161002084F8461084F83E1084F8FE
:1016F0003F1084F8401084F8411084F8421084F8B8
:10170000431084F8441084F8451084F83D1010BD4F
:1017100080B582B00068B0F1804F1CBF02B080BDC0
:1017200041F21C00C4F202000168002241F00101F4
:1017300001600068012100F00100019001981C2067
:10174000FFF7FAFB1C2002B0BDE88040FFF7E4BBC6
:1017500090F83D1001291CBF01207047022180F83C
:101760003D10006840F2FF72C168C4F2000290426E
:1017700041F00101C16009DCB0F1804F12D040F2AC
:101780000041C4F2000188420CD012E042F6004150
:10179000C4F20101884205D040F60001C4F2000104
:1017A000884206D1816801F00701062904BF0020A4
:1017B0007047016841F0010101600020704700009E
:1017C00080B590F83C20012A4FF0020200F0BF8063
:1017D00080F83D20D0F800C04FF67772DCF8083072
:1017E00023EA0202CCF808200B683F2B1CDD5F2B9C
:1017F00020DD602B50D0B3F5005F6DD0702B40F032
:10180000A080D1E901E3C968DCF8082043EA0E03AF
:1018100022F47F4243EA01211143CCF80810DCF89E
:10182000081041F077018AE01F2B29DC63B3102BED
:101830002AD086E0402B63D0502B40F08280D1F834
:1018400004E0C968DCF82030DCF8202022F0010236
:10185000CCF82020DCF8182022F0F00242EA011136
:1018600023F00A0242EA0E02CCF81810CCF820202D
:10187000DCF8081041F0570121F020015FE000BFC3
:10188000202B01D0302B5CD1DCF8081021F0700146
:10189000194341F0070152E0D1F804E0C968DCF8CF
:1018A000203023F01003CCF82030DCF81830DCF8BE
:1018B000202023F4704322F0A00243EA013142EADF
:1018C0000E12CCF81810CCF82020DCF8081041F0EB
:1018D000670121F0100132E0D1E901E3C968DCF8C9
:1018E000082043EA0E0322F47F4243EA0121114318
:1018F000CCF80810DCF8081041F480411FE000BF6C
:10190000D1F804E0C968DCF82030DCF8202022F0AF
:101910000102CCF82020DCF8182022F0F00242EA84
:10192000011123F00A0242EA0E02CCF81810CCF89A
:101930002020DCF8081041F0470121F03001CCF8FC
:1019400008100121002280F83D1080F83C2010464C
:1019500080BD00007047000010B5016804460869AA
:10196000800744BFC8685FEA807039D408694007BF
:1019700044BFC8685FEA40703ED40869000744BFAE
:10198000C8685FEA007045D40869C00644BFC868EB
:101990005FEAC0604AD40869C0071CBFC8685FEA34
:1019A000C07051D10869000644BFC8685FEA006092
:1019B00052D40869400644BFC8685FEA406053D407
:1019C0000869800646BFC8685FEA806010BD6FF096
:1019D000200220460A61BDE81040FFF7E3BD00BFCA
:1019E0006FF002000861012020778869800743D0EA
:1019F0002046FFF7AFFF45E06FF0040008610220CA
:101A00002077886910F4407F40D02046FFF7A2FF7E
:101A100042E000BF6FF00800086104202077C86929
:101A200080073DD02046FFF795FF3FE06FF01000A4
:101A3000086108202077C86910F4407F3AD020461A
:101A4000FFF788FF3CE000BF6FF00100086120460F
:101A500000F03EF82168A5E76FF08000086120469D
:101A6000FFF79EFD2168A4E76FF040000861204663
:101A700000F06AF82168A3E7204600F025F8204628
:101A800000F024F82168002020776FE7204600F05E
:101A90001BF8204600F01AF82168002020776CE738
:101AA000204600F011F8204600F010F821680020D0
:101AB000207769E7204600F007F8204600F006F896
:101AC00021680020207766E770470000704700001B
:101AD00010B50068B0F1804F18BF10BD40F2D404BB
:101AE000C2F20004208840F270110130208040F2E0
:101AF0006C1040F27812C2F20000C2F20001C2F291
:101B0000000202F08BF82088C8280BD841F20000B0
:101B1000C4F201004FF400510022BDE81040FFF76D
:101B200087B900BFB0F5FA7F0AD841F20000C4F2CD
:101B300001004FF400510122BDE81040FFF778B9D1
:101B40000020208010BD000070470000704700009A
:101B500070470000B0B582B0026805461068D368CF
:101B6000546900F02F01202903F0200106D129B18A
:101B7000284602B0BDE8B04000F032BF5FEA007C0A
:101B80001EBF04F0010E03F4907414EB0E0455D143
:101B9000296B012905D110F0100118BF13F01001B5
:101BA00036D1010622D513F080011FD095F83D00F3
:101BB000212841D1A868B0F5805F03D128690028A9
:101BC00000F0F680286A411C296200785060E88C99
:101BD00001380104E8842FD1D06820F08000D06063
:101BE000D06840F04000D06002B0B0BD400623D5C0
:101BF00013F0400020D0D068202120F04000D060B9
:101C0000284685F83D1002B0BDE8B04000F032BB78
:101C1000002001901068019050680190019850696F
:101C2000400613D4A88DE98DEB8D002B1CBF401A04
:101C30005FEA004140F0A48002B0B0BDC40718BF05
:101C400013F480732CD1430730D436E0A86B0168BD
:101C50004B689CB2002CEFD0A98D8C42ECD2EB8566
:101C60008369202B17D0D16821F48071D16051692C
:101C700021F001015161516921F0400151612021A0
:101C800085F83E1000212963D16821F01001D16050
:101C9000FEF730FFA98DE88D081A81B2284682E050
:101CA0002B6C43F001032B64430706D5BEF1000FF4
:101CB00003D02B6C43F002032B64830706D5BEF1DF
:101CC000000F03D02B6C43F004032B64BCF1000F16
:101CD00006D551EA0E0303D02B6C43F008032B64A6
:101CE0002B6C002BA8D010F0200018BF002903D0C7
:101CF000284600F075FE2A685069296C00F0400003
:101D000001F0080140182DD0D06820F49070D06008
:101D1000506920F001005061286B012803D1D06880
:101D200020F01000D060202085F83E0000202863BD
:101D3000506940061ED5506920F040005061A86BE4
:101D4000C0B142F6D511C0F600014163FEF7F6FEC0
:101D500000283FF471AFA86B416B02B0BDE8B04002
:101D6000084700BF2846FFF7F3FE0020286402B0B2
:101D7000B0BD00BF284602B0BDE8B040FFF7E8BEE6
:101D8000D16821F49071D160516921F00101516154
:101D9000202185F83E1000212963D16821F010032D
:101DA00081B22846D36002B0BDE8B040FFF7CEBE96
:101DB000286A30F8021B6FF35F215160286206E742
:101DC000002804BF0120704710B5044690F83D007C
:101DD00028B9002084F83C00204600F05FF8242059
:101DE00084F83D002068D4E90212C36823F400534C
:101DF000C360036923F440531A430261D4E9042306
:101E00001143C268194341F20C639A431143C16004
:101E10004169A26921F44071114343F60002C4F202
:101E200001029042416103D0FFF7A2F902E000BF36
:101E3000FFF7B2F96268192148439100B0FBF1F055
:101E400048F21F51C5F2EB11A0FB01235A096FF0B4
:101E5000630302FB0300322303EB0010A0FB01012C
:101E6000F02303EA5113206803EB0212C1F343117C
:101E700011448160016921F490410161416921F0BF
:101E80002A014161C16841F40051C1600020202154
:101E9000206484F83D1084F83E1010BD70B586B003
:101EA000006844F20041C4F2000100268842059611
:101EB000CDE9036602963FD043F60001C4F201016A
:101EC000884266D141F21800C4F20200016840F66F
:101ED000000441F4804101600168C4F2010401F48E
:101EE000804101910199016802AD41F00401016056
:101EF0000068294600F00400019001984FF400703A
:101F0000029002200390032005902046FEF780FEF9
:101F10004FF4806002900020CDE90300204629465E
:101F2000FEF776FE252000210022FFF705F8252088
:101F3000FEF7F2FF06B070BD41F21800C4F20200D5
:101F4000416840F6000441F4003141604168C4F248
:101F5000010401F4003101910199016802AD41F0E1
:101F6000040101600068294600F004000190019816
:101F70000420029002200390032005902046FEF7E3
:101F800047FE0820CDE90206204629460496FEF7C2
:101F90003FFE06B070BD0000034690F83E002028CA
:101FA0000AD100294FF0010018BF002A00D1704764
:101FB00093F83C00012801D10220704700201863EB
:101FC000996222219A85DA85186483F83E1019688F
:101FD00083F83C00CA6842F48072CA604A6942F0E1
:101FE00001024A61CA6842F02002CA6070470000DC
:101FF0002DE9F041006843F60001C4F2010140F20E
:1020000054048842C2F2000445D160782178421C11
:1020100020440A29627001753DD1002004F11405A5
:10202000607021A12846FEF7C0F80746606020A135
:102030002846FEF7BAF80646A0601EA12846FEF71D
:10204000B4F88046E0601DA12846FEF7AEF8206196
:1020500017B10EB9012102E037B92EB1002140F2CB
:102060005002C2F200021170B8F1000F02D008B99C
:10207000022004E0B8F1000F06D128B1012040F29F
:102080004C01C2F2000108702846FEF7A0F8014694
:102090002846FEF77FF804F1280021460122BDE81A
:1020A000F041FFF779BF00BF535441525400000084
:1020B000454E440047414D4500000000564F4943FE
:1020C000450000002DE9F04381B0044690F83D0042
:1020D00020280DD10F4600294FF0010000F092801A
:1020E0001646002A00F08E8094F83C00012803D1A7
:1020F000022001B0BDE8F083012084F83C004FF0DD
:10210000000921201D46C4F8409084F83D00FEF7E8
:1021100095FEA684E684A1688046B1F5805F25D14E
:10212000206900281CBF38464F463E46074684F8C3
:102130003C90E08C00B3681C20D0002D66D1206854
:102140000BE000BF36F8021B00276FF35F214160F0
:10215000E18C0139E184E18C81B30168090675D510
:10216000002FEFD017F8011BF1E700BF002684F81D
:102170003C90E08C0028DED120681FE0206802E05F
:102180000168090609D40168090606D40168090630
:102190005CBF01685FEA0161F2D51FB117F8011B4E
:1021A00005E000BF36F8021B00276FF35F21416096
:1021B000E18C0139E184E18C0029E4D10168490610
:1021C0001CD4002D42D0691C0ED10168490615D4DB
:1021D000016849065CBF01685FEA41610ED401688D
:1021E0004906F2D50AE000BFFEF728FEA0EB080181
:1021F0002068A9422AD800684006F5D5202084F836
:102200003D00002001B0BDE8F08300BF206800BFA2
:102210000168090608D4FEF711FEA0EB080120684A
:10222000A942F5D912E000BF17B117F8011B04E06D
:1022300036F8021B00276FF35F214160E18C013902
:10224000E184E18C0029E3D1B8E700BFC16821F443
:10225000D071C160416921F001014161202084F801
:102260003D0084F83E00002084F83C00032001B0CB
:10227000BDE8F08370470000FEE70000F0B581B0D4
:1022800040F60044C4F201040546204680210122A4
:10229000FEF7CEFD204640210122FEF7C9FD204673
:1022A0008021FEF7BFFD0646002820464FF0400182
:1022B0004FF0000218BF0126FEF7BAFD204640216C
:1022C0000122FEF7B5FD20468021FEF7ABFD002878
:1022D00018BF012040EA4607204640210022FEF7B1
:1022E000A7FD204640210122FEF7A2FD20468021C5
:1022F000FEF798FD0646002820464FF040014FF0BB
:10230000000218BF0126FEF793FDB80040EA46061A
:10231000204640210122FEF78BFD20468021FEF75A
:1023200081FD002818BF01203718204640210022D7
:10233000FEF77EFD204640210122FEF779FD204672
:102340008021FEF76FFD0646002820464FF0400131
:102350004FF0000218BF0126FEF76AFDB80040EA00
:102360004606204640210122FEF762FD20468021DC
:10237000FEF758FD002818BF0120371820464021DD
:102380000022FEF755FD204640210122FEF750FDB8
:1023900020468021FEF746FD0646002820464FF0E5
:1023A00040014FF0000218BF0126FEF741FDB800C2
:1023B00040EA4606204640210122FEF739FD20462C
:1023C0008021FEF72FFD002818BF0120064420467B
:1023D00040210022FEF72CFD681EB0FA80F0420971
:1023E00020468021FEF724FD204640210122FEF7F1
:1023F0001FFD204640210022FEF71AFDF0B201B079
:10240000F0BD0000B0B540F60044C4F2010405463A
:10241000C20920468021FEF70BFD20464021012203
:10242000FEF706FD204640210022FEF701FDC5F320
:10243000801220468021FEF7FBFC2046402101222D
:10244000FEF7F6FC204640210022FEF7F1FCC5F322
:10245000401220468021FEF7EBFC2046402101225D
:10246000FEF7E6FC204640210022FEF7E1FCC5F322
:10247000001220468021FEF7DBFC2046402101228D
:10248000FEF7D6FC204640210022FEF7D1FCC5F322
:10249000C00220468021FEF7CBFC204640210122CD
:1024A000FEF7C6FC204640210022FEF7C1FCC5F322
:1024B000800220468021FEF7BBFC204640210122FD
:1024C000FEF7B6FC204640210022FEF7B1FCC5F322
:1024D000400220468021FEF7ABFC2046402101222D
:1024E000FEF7A6FC204640210022FEF7A1FC05F0E5
:1024F000010220468021FEF79BFC2046402101225C
:10250000FEF796FC204640210022FEF791FC204673
:1025100080210122FEF78CFC204640210122FEF79B
:1025200087FC20468021FEF77DFC054620464021A1
:102530000022FEF77DFC2846B0BD000080B56B2070
:10254000802100F0E5F86420FEF74EFB6B200021AF
:1025500000F0DEF81B20182100F0DAF81C20002122
:1025600000F0D6F81920132100F0D2F81A20042127
:1025700000F0CEF83820002100F0CAF86A200021CF
:1025800000F0C6F82320002100F0C2F83720802197
:1025900000F0BEF8752000F013F86B20012100F068
:1025A000B7F86C20002100F0B3F81920042100F0E6
:1025B000AFF81A20022100F0ABF8002080BD000027
:1025C000B0B540F60044C4F201040546204680211F
:1025D0000122FEF72DFC204640210122FEF728FCB7
:1025E000204680210022FEF723FC204640210022C5
:1025F000FEF71EFCD020FFF705FF2846FFF702FF7D
:10260000204680210122FEF713FC204640210122B2
:10261000FEF70EFC204680210022FEF709FC204632
:1026200040210022FEF704FCD120FFF7EBFE012041
:10263000FFF724FE0546204680210022FEF7F8FB26
:10264000204640210122FEF7F3FB20468021012293
:10265000FEF7EEFB2846B0BD2DE9F04140F6004400
:10266000C4F201041646884607462046802101220E
:102670001D46FEF7DDFB204640210122FEF7D8FB78
:10268000204680210022FEF7D3FB20464021002275
:10269000FEF7CEFB7F00F8B2FFF7B4FE4046FFF72F
:1026A000B1FE204680210122FEF7C2FB20464021D8
:1026B0000122FEF7BDFB204680210022FEF7B8FB79
:1026C000204640210022FEF7B3FB781CC0B2FFF782
:1026D00099FE05E00120FFF7D1FD05F8010B013E51
:1026E000F0B20128F6D008B10020F4E7204680219E
:1026F0000022FEF79DFB204640210122FEF798FBB9
:10270000204680210122FEF793FB0020BDE8F081E6
:1027100070B540F60044C4F201040D46064620465A
:1027200080210122FEF784FB204640210122FEF792
:102730007FFB204680210022FEF77AFB20464021C5
:102740000022FEF775FBD020FFF75CFE3046FFF756
:1027500059FE2846FFF756FE204680210022FEF74C
:1027600067FB204640210122FEF762FB20468021C4
:102770000122FEF75DFB002070BD00002DE9F04155
:1027800040F60044C4F2010415460F4606462046B2
:10279000802101229846FEF74BFB20464021012272
:1027A000FEF746FB204680210022FEF741FB204633
:1027B00040210022FEF73CFB7000C0B2FFF722FE72
:1027C0003846FFF71FFE3DB1A8F1010616F8010FCC
:1027D000FFF718FE013DF9D1204680210022FEF7C7
:1027E00027FB204640210122FEF722FB20468021C4
:1027F0000122FEF71DFB0020BDE8F0812DE9F0432A
:1028000085B041F21800C4F20200016840F60044AD
:1028100041F0100101600168C4F2010401F01001EF
:1028200001910199016804F5806541F02001016082
:102830000168002201F020010191019901684FF423
:10284000005641F00401016001684FF0000901F0F9
:10285000040101910199016841F0080101600068DB
:102860004FF4005100F00800019001982846FEF74F
:10287000DFFA2046C02101224FF0C0080127FEF7F1
:10288000D7FA01A880E8C002022001AE04902846D1
:102890003146FEF7BDF91820CDE901092046314641
:1028A0000397FEF7B5F91120CDE902070320049044
:1028B00020463146CDF80480FEF7AAF905B0BDE800
:1028C000F083000080B586B040F2E0000021C2F243
:1028D00000004FF08042472340F2E73C0591CDE9EC
:1028E0000311CDE90011C0E90023C0E9021C016118
:1028F0008161FEF797FE002818BFFEF7F5F84FF448
:102900008050029040F2E000C2F2000002A9FEF7FF
:1029100057FF002818BFFEF7E7F840F2E000C2F2C8
:1029200000006946FEF740FE002818BFFEF7DCF8FD
:1029300006B080BD80B540F2540043F60001C2F2FB
:102940000000C4F2010140F8281F4FF4E1310022D9
:102950000C23C0E90112C0E90322C0E90532C261BB
:10296000FFF72EFA002808BF80BDBDE88040FEF7C3
:10297000BBB8000080B540F2281044F20041C2F21A
:102980000000C4F2000100234FF00C0C4FF416526B
:1029900080E80E00C0E90333C0E905C3C361FFF757
:1029A0000FFA002808BF80BDBDE88040FEF79CB844
:1029B000FEE70000FEE700007047000070470000DF
:1029C000FEF742BA7047000040F2E000C2F2000099
:1029D000FEF7C2BF406A0021C185C184FFF7B8B8C5
:1029E00081B090F83E10222920D18368B3F5805F32
:1029F00008D10169002941D000F128010A68036863
:102A00005B680AE0014651F8282F13B90369002BCF
:102A1000F5D003685B6803F07F0313700A68013226
:102A20000A60C18D01390A04C18501D001B0704727
:102A30000168CA6822F02002CA60CA6822F4807263
:102A4000CA604A6922F001024A61202280F83E20D1
:102A5000026B012A1CD100220263CB6823F0100311
:102A6000CB600B68DB0605D500920A6800924968C6
:102A700000910099818D01B0FFF768B80168826A02
:102A800049686FF35F2122F8021B8262C9E700BF29
:102A900001B0FFF7ADBA000040F27C00C2F20000C6
:102AA000FFF758B8FEE7000001380B2888BF7047D1
:102AB00005A151F8201040F22810C2F200000822AF
:102AC0004FF47A73FFF7FEBAED6F00085D700008EF
:102AD000667000086F700008787000088170000848
:102AE0008A700008937000089C700008427000080B
:102AF0004B70000854700008B0B540F26C10C2F280
:102B0000000004680021C4F220112046FDF7DFFD1B
:102B100040B90021C4F2A0012046FDF7E6FD08B14E
:102B20006F2036E00021C4F220112046FDF7DDFDC4
:102B300010B104202DE000BF0021CCF2A0012046FE
:102B4000FDF7C5FD38B90021CCF220112046FDF774
:102B5000CCFD0028E4D10021CCF220112046FDF765
:102B6000A8FD08B1022014E020464FF08141FDF796
:102B7000A0FD00210546CCF280012046FDF7B5FD01
:102B800000284FF06F0018BF05206F21002D08BFEF
:102B9000084640F2C001C2F200010A78904203D117
:102BA00001204870B0BD00BF08700238002205281F
:102BB0004A7088BFB0BDDFE800F0031323334353EE
:102BC00040F2281047F26601C2F20000C0F6000190
:102BD00008224FF47A73BDE8B040FFF773BA00BF24
:102BE00040F2281046F6ED71C2F20000C0F6000176
:102BF00008224FF47A73BDE8B040FFF763BA00BF14
:102C000040F2281047F26F01C2F20000C0F6000146
:102C100008224FF47A73BDE8B040FFF753BA00BF03
:102C200040F2281047F27801C2F20000C0F600011D
:102C300008224FF47A73BDE8B040FFF743BA00BFF3
:102C400040F2281047F24B01C2F20000C0F600012A
:102C500008224FF47A73BDE8B040FFF733BA00BFE3
:102C600040F2281047F28101C2F20000C0F60001D4
:102C700008224FF47A73BDE8B040FFF723BA000092
:102C80002DE9F04186B004464CF60220C0F6E31070
:102C90000DF10205CDF80200682004212A4602F059
:102CA00037FCA3206FF03F018DF8020014F04006BE
:102CB00008BF6FF05C016FF037026FF03D0308BF93
:102CC0006FF05C0208BF6FF05C038DF803106FF0CB
:102CD0003B018DF804208DF8053014F4C07708BF4F
:102CE0006FF05C016FF033026FF0390308BF6FF0D3
:102CF0005C0208BF6FF05C038DF806104AF2A33146
:102D00008DF80720ADF809108DF80B0040F6A720CC
:102D10000A212A468DF8083002F0FAFB202014F030
:102D2000030808BF6FF027008DF8020040F6B620B8
:102D300001212A4602F0ECFBA0060BD4C720059027
:102D400048F6B000CCF2C35004904AF6B820CAF658
:102D5000AA200AE05D20059049F6B400C3F20D50A8
:102D600004904AF6B820C8F6B350039003AA4FF473
:102D70009760092102F0CCFB2FB36FF04D016FF08B
:102D8000740214F4807008BF6FF04F0108BF6FF039
:102D90007F026FF049036FF0640508BF6FF04B03CB
:102DA000002808BF6FF06F058DF802108DF8032022
:102DB0000DF1020240F6A22004218DF804308DF8B6
:102DC000055002F0A5FBE00708D1D8208DF80200DD
:102DD0000DF102024FF40B60012150E0F8208DF854
:102DE00002000DF102024FF40B60012102F090FB92
:102DF0000720FA2100F000FB3F208DF80C0003AA09
:102E00004FF4A470012102F083FB00208DF80C0028
:102E100003AA40F24F10012102F07AFB4FF4A050B8
:102E2000ADF80C0003AA4FF4EF70022102F070FB22
:102E30004FF4C840ADF80C0003AA4FF4ED70022126
:102E400002F066FB48F60060C9F2F900039003AA9D
:102E50004FF4AE70042102F05BFB4FF40060ADF85C
:102E60000C0003AA4FF4AD70022102F051FB4FF4A5
:102E70000070ADF80C0003AA4FF4AC70022102F010
:102E800047FBA0076FF0260058BF6FF027008DF8B2
:102E900002000DF1020240F23D70012102F038FB08
:102EA000600752BF4FF08B304CF2C020CCF2C460B0
:102EB000039003AA40F69820042102F029FB01F0B8
:102EC00031FBE00652BF4FF0A33042F62000C3F6BC
:102ED0003000039003AA40F69E20042102F018FB64
:102EE00001F020FB40F2C40544F00800C2F20005E6
:102EF000A88001F017FB002E18BF0626002F18BF70
:102F0000063614F0140F18BF46F01006B8F1000F83
:102F100018BF043600202E7006B0BDE8F081000016
:102F200046F2D031C0F6000140F6F6304FF4806230
:102F3000C82301F0E9B800002DE9F04F89B014462C
:102F4000DDE912A20F46002140F2C409AAF80010E0
:102F5000C2F2000999F800100DF1040883460846F2
:102F600041461E4601F080FA20B14FF0FF3009B013
:102F7000BDE8F08FB9F804C01CF0140F5AD09DF8CA
:102F800005209DF804109DF806301204B6469DF801
:102F9000076042EA016141EA0322324422609DF85F
:102FA00009209DF80830120442EA03629DF80A30B5
:102FB0009DF80B6042EA0323334463609DF80D30B3
:102FC0009DF80C601B0443EA06639DF80E609DF8B3
:102FD0000F5043EA06262E441214A6609DF8116095
:102FE000091452439DF8105001FB012136041A14B4
:102FF00046EA056602FB0211321402FB02119DF83B
:1030000012506FF088529DF8130011444FF6FE7273
:1030100046EA0525CFF6FF5228449142E06071D878
:1030200001F080FA0020AAF800004FF0FF3009B04C
:10303000BDE8F08F00215FEA4C6026D541F0010227
:1030400018F8010018F8022041F0030342EA0020BA
:1030500041F0020218F8022018F80330388043EAE1
:10306000022041F0040241F0050318F8022018F88C
:103070000330788043EA0220B880BAF8000041F0BB
:10308000060140F00800AAF800001CF4C07F18D028
:1030900038F8010008EB010200BA5388000CABF8C5
:1030A000000018BA9288000CABF8020010BA000CAD
:1030B000ABF80400BAF80000063140F07000AAF83E
:1030C00000005FEA8C7016D008EB01056878EC7898
:1030D000C10709D0D9F8082032B104F00700411C1B
:1030E000C4F3C20090476878000704D5D9F80C10E3
:1030F00009B1A0098847304600F036FD002009B02C
:10310000BDE8F08FBAF80000102140F480707646D8
:10311000AAF800005FEA4C6090D4B6E7B0B584B07E
:1031200004460DF1020000F00DFF40F2D801C2F29A
:1031300000010988BDF8020001F003024B0754F8B2
:1031400022204FF00C034FEAC03C48BF524203EA32
:1031500051038806E358C1F3811048BF5B4254F81D
:103160002000C90548BF40428CFB00018CFB02E2F5
:10317000800F8CFB035440EA810C900D8DF8040005
:10318000900B8DF8050090098DF80600A00D8DF8C4
:103190000800A00B8DF80900A0098DF80A00880D21
:1031A0008DF80C00880B4FEA9E73AD0F8DF80D0063
:1031B000880943EA820345EA84058DF80E0001AAD6
:1031C0004FF425700C218DF807308DF80B508DF8D9
:1031D0000FC002F09DF904B0B0BD000010B586B07C
:1031E00004464AF6BB70CDF6DF7005904FF2AA1088
:1031F000CDF6DF7004904FF2FE20CCF2AB40C82C2D
:10320000039017D8E0B2C821B1FBF0F000210138DB
:103210008DF804108DF8050001AA40F21620022155
:1032200002F076F930B903AA40F6C1200C2102F071
:103230006FF918B14FF0FF3006B010BD40F2DC005E
:10324000C2F200000480002006B010BD70B582B04C
:1032500040F2D801C2F2000109884EF2093401F0AF
:10326000030250F822200C264B0748BF5242C0F2FE
:10327000CA2406EA5106C1F3811582FB042386594C
:1032800050F82550880648BF7642C8054FEA93514A
:1032900048BF6D42900F8DF80410990B40EA8300EF
:1032A0008DF8051099098DF806108DF8070001AA10
:1032B0004FF47470042102F02BF968B986FB040105
:1032C000800F40EA810000BA019001AA4FF47570A6
:1032D000042102F01DF918B14FF0FF3002B070BDAB
:1032E00085FB0401800F40EA8100010E8DF8041077
:1032F000010C8DF80510010A8DF806108DF80700F5
:1033000001AA4FF47670042102F002F902B070BDF8
:10331000B0B582B0054646F2A531C0F60001C5F34E
:10332000C10300F00300CC5C0A5C8DF8054046F256
:10333000A2348DF80420C5F38112C0F60004895C24
:10334000205C8DF806108DF80000E05CA15C8DF823
:1033500001008DF8021001AA40F22640032102F07C
:10336000D7F850BB6A4640F22A40032102F0D0F859
:1033700018BB45F23660C0F27600019044F2266038
:10338000C0F26600690700901CD4A80622D4E805A4
:1033900005D577208DF8060067208DF8020001AA78
:1033A0004FF48860032102F0B3F830B96A4640F266
:1033B0003140032102F0ACF8B0B14FF0FF3002B061
:1033C000B0BD00BF37208DF8040027208DF8000025
:1033D000A806DCD557208DF8050047208DF80100A0
:1033E000E805D6D4DBE700BF40F2D800C2F2000007
:1033F0000580002002B0B0BDF0B583B00446B1F541
:10340000C86F4FF0FF3055D814F0070252D008466D
:10341000FDF790F90021C4F24831FCF776FF05462C
:103420000DF1070000F070FD9DF8070002384FEA2B
:103430007002072A4FF0FF303CD80026C4F24066E5
:103440004FF08D41DFE802F01504360A36363610AB
:103450000026C4F2C0564FF08C410AE00026C4F2A8
:1034600040564FF08B4104E00026C4F2C0464FF0B6
:103470008A412846FCF717FF074628463146FCF7E5
:1034800012FFFDF75CF906463846FDF758F9010AC8
:103490008DF808108DF80900300A02A98D1C8DF8EE
:1034A0000A00E0078DF80B6006D1A00714D460076E
:1034B00022D4002003B0F0BD02AA4FF4EA7002212A
:1034C00002F026F838BB4FF4927002212A4602F02F
:1034D0001FF800BBE9E700BF02AA4FF4EC7002211D
:1034E00002F016F8B8B94FF4947002212A4602F09F
:1034F0000FF880B9DBE700BF02AA4FF4EE7002219B
:1035000002F006F838B94FF4967002212A4601F00D
:10351000FFFF0028CDD04FF0FF3003B0F0BD00001A
:1035200080B582B0019040F25400C2F20000283011
:1035300001A901224FF47A73FEF7C4FD019802B08D
:1035400080BD00002DE9F04F85B040F21007054620
:103550000120C2F200070C46ADF80800D7E90310BD
:1035600016460078897C02AB0222FFF707F9002893
:1035700040F0C280C820FDF737FB00208DF808001E
:10358000D7E9031002AB0078C97B0122FFF7F6F8F8
:10359000002840F0B180D7E9031002AB00784979E8
:1035A0000122FFF7EBF8002840F0A680D7E90310CE
:1035B00002AB0078897C0122FFF7E0F8002840F098
:1035C0009B80D7E9031002AB0078C97D0122FFF789
:1035D000D5F8002840F09080D7E9031002AB0078BE
:1035E00009790122FFF7CAF8002840F085800C20F5
:1035F0008DF80800D7E9031002AB007809790122A1
:10360000FFF7BCF8002877D10F20FDF7EDFA786BB3
:10361000F968407A3A698DF808001078897802AB29
:103620000122FFF7ABF8002866D1786BF968007AC1
:103630003A698DF808001078497802AB0122FFF74B
:103640009DF8002858D1786BD7E90312807A002EB4
:1036500018BF40F0E0008DF808001078897902ABBF
:103660000122FFF78BF8002846D12EB1786BC07A83
:1036700060F01F0001E000BF18208DF80800D7E9B6
:10368000031002AB0078C9790122FFF777F898BBE5
:1036900016B1C820FDF7A8FA40208DF80800D7E938
:1036A000031002AB007809790122FFF767F818BB15
:1036B00078208DF80800D7E9031002AB007849792B
:1036C0000122FFF75BF8B8B93220FDF78DFA002030
:1036D0008DF80800D7E9031002AB00784979012280
:1036E000FFF74CF840B9D7E9031002AB0078897AAC
:1036F0000222FEF7B1FF28B14FF0FF37384605B080
:10370000BDE8F08FBDF808004AF6AB2100BA000C06
:103710004843C0F3C7420021002AC5E90011A9604F
:10372000C4E900110192A16044D0C00C00260DF143
:1037300008095FFA80F8D7E903100C220078C97AEB
:103740004B46FEF789FF0028D6D1BDF80800BDF82A
:103750000C20BDF80A1090FA80FC92FA82FED4E99F
:103760000030A26809BA00EB214002EB2E4103EBC6
:103770002C43A160BDF81010C4E90030BDF8122040
:10378000BDF80E0091FA81FEA96892FA82FCD5E993
:103790000032013600BA01EB2C4AF1B203EB2040B3
:1037A00002EB2E4B4145C5E9000BC5F808A0C2D37A
:1037B00004E000BFD5E9000BD5F808A0C117090443
:1037C00041EA10410004832200230027FCF7AAFCF1
:1037D000DDF8048000234246FCF7A4FC28604FEA91
:1037E000EB70000440EA1B414FEA0B4083220023A8
:1037F000FCF798FC42460023FCF794FC68604FEA13
:10380000EA70000440EA1A414FEA0A40832200238A
:10381000FCF788FC42460023FCF784FCA860D4E94E
:103820000006A568C117490141EAD061400142463E
:103830000023FCF777FC2060F017400140EAD661D6
:10384000700142460023FCF76DFC6060E817400100
:1038500040EAD561680142460023FCF763FC4FF45F
:1038600080310028C4BF0021CFF6FF710844A0605A
:10387000384605B0BDE8F08F90F9001000290DDD45
:10388000002190F90320002A10DD002290F9063073
:10389000002B13DD002011430843704718D490F922
:1038A000011000291EDD0121EBE700BF12D490F9C1
:1038B0000420002A1EDD0822E8E700BF0CD490F99E
:1038C0000730002B1EDD402011430843704700BF26
:1038D0000421D6E72022D9E74FF480701143084332
:1038E000704700BF18D490F9021000291EDD022194
:1038F000C7E700BF12D490F90520002A1CDD102272
:10390000C4E700BF0CD490F9080000281ADD80201D
:1039100011430843704700BF0521B2E72822B5E7ED
:103920004FF4A07011430843704700BF4FF00601E9
:1039300008BF0721A5E700BF4FF0300208BF3822BB
:10394000A4E700BF4FF4C07008BF4FF4E07011430C
:103950000843704790B0FDF785FA00240120CDE9B7
:103960000B44CDE9094406900A904FF4E0104FF45F
:10397000803102250F9006A8CDE90714CDE90D513D
:10398000FDF71EFC20B1EFF3108072B6FEE700BF1A
:103990000F20CDE901054FF48060CDE9040401A8B2
:1039A00002210394FDF704FB20B1EFF3108072B6FF
:1039B000FEE700BFFEF722FFFEF784FFFEF7BAFF27
:1039C000FEF7D8FF4FF4FA60FDF70EF90720FFF776
:1039D0006BF84FF47A60FDF707F9FEF7AFFD00F0E2
:1039E0001BFA78B15BA400BF0A20FFF75DF841F233
:1039F0008830FDF7F9F8204602F020FC00F00CFAC0
:103A00000028F1D155A001F02FFE40F27C0040F2D9
:103A10005401C2F20000C2F200010122FEF7BCFA1A
:103A200040F26C1740F2701540F27816C824C2F2CA
:103A30000007C2F20005C2F2000600BF3846294660
:103A4000324600F0EBF80A20FDF7CEF8013CF5D144
:103A500040F2E000C2F20000FDF77AFE0820FFF716
:103A600023F840F27C0040F25401C2F20000C2F29E
:103A7000000101220124FEF78FFA40F6B830FDF76D
:103A8000B3F840F24C06C2F20006307840F250071C
:103A90000128C2F2000709D1002030700B207C7091
:103AA000FFF702F84FF4FA60FDF79EF840F20009C4
:103AB00040F2000A4FF00008CCF22019C4F2201A9C
:103AC0000FF29C0B87F8008002E000BFFFF714F8AC
:103AD000307802280AD0012816D1787886F800803C
:103AE000022812D10B20012107E000BF787886F868
:103AF000008001280BD10C2002217970FEF7D4FF41
:103B00004FF4FA60FDF770F878780128DED00228CB
:103B1000DED138780128DBD140F26C10C2F200000F
:103B2000046849462046FCF7C4FD00284FF05005C4
:103B30002046514618BF5225FCF7D7FD002818BF74
:103B40004C255846294601F08FFD3220FDF74CF8F0
:103B5000BEE700BF4552524F520D00004F4B2100AF
:103B60005025630D0A00000070470000F0B581B0D9
:103B700040F21005C2F2000595F8301021B1002482
:103B8000204601B0F0BD00BFA97D69B300F0FE077B
:103B900039402E7FCC1B95F8200018BF4FF0FF3422
:103BA000002F297708BF002824D0687F78B901202A
:103BB0008DF80200D5E903100DF102030078C97BEE
:103BC0000122FEF7DBFD10B99DF802006877002F97
:103BD000D6D000F0A7FC00281CBF2E774FF0FF3492
:103BE000204601B0F0BD00BF4FF0FF34204601B0C9
:103BF000F0BD00BF00208DF80300D5E903100DF1E2
:103C000003030078C97B0122FEF7B8FD0028B7D175
:103C10009DF803006877204601B0F0BD2DE9F04F14
:103C20008FB083460DF12A0014460D460DF1290789
:103C300000900DF132000BA906AA0EAB0197FFF719
:103C40007BF928B1012528460FB0BDE8F08F00BFF1
:103C5000BDF82A00C00505D4022528460FB0BDE8EE
:103C6000F08F00BF06980594DDE907460495099D8D
:103C7000FCF757FD4FF04251FCF715FB0746204675
:103C8000FCF74FFD4FF04251FCF70DFB82463046EA
:103C9000FCF747FD4FF04251FCF705FB81462846F3
:103CA000FCF73FFD4FF04251FCF7FDFA0446504649
:103CB0004FF04041FCF7F7FA0646CDE902073846D7
:103CC0003946FCF798FA49468046FCF7ECFA054677
:103CD000304621462746FCF7E6FA2946FCF78BFAE0
:103CE000FCF746FD01F094FF4AF26663C4F24C0310
:103CF0004FF06632FCF7EEFB00224FF04043002508
:103D0000FCF741FBFCF747FDCBF80000484649466D
:103D1000FCF771FA044640465146FCF7C4FA0646E1
:103D200020463946FCF7BFFA3146FCF764FAFCF747
:103D30001FFD80460E4648462146FCF7B4FA04466D
:103D400002985146FCF7AFFA2146FCF7A6FA4FF06D
:103D50007E51FCF750FAFCF70BFD02460B4640463D
:103D6000314602F09DF94AF266634FF06632C4F2C2
:103D70004C03FCF7AFFBFCF70EFD0499DDF80CB02B
:103D80000860584639463E46FCF78DFA04465046D0
:103D90004946FCF788FA2146FCF72DFA0146FCF764
:103DA0002AFAFCF7E5FC0746884650465146FCF7E0
:103DB0007AFA044658465946FCF775FA2146FCF74C
:103DC0001AFA044648464946FCF76DFA0146204671
:103DD000FCF763FA044630463146FCF764FA0146C4
:103DE0002046FCF75AFAFCF7C3FC02460B4638465D
:103DF000414602F055F94AF266634FF06632C4F26A
:103E00004C03FCF767FBFCF7C6FC059908602846E5
:103E10000FB0BDE8F08F000070B582B000F0B4F8CC
:103E200010B10A2002B070BD782001F0FBFA000644
:103E300002D0012002B070BD40F21004C2F20004B2
:103E400094F8300040B1C82001F048FA000621D0B3
:103E5000032002B070BD00BFA07D98B3617F257FB5
:103E600000F07806267779B901208DF80700D4E9AB
:103E700003100DF107030078C97B0122FEF77EFCD9
:103E800010B99DF80700607700F04CFBC0B12577B2
:103E900018E000BFFFF744F8000603D0042002B08A
:103EA00070BD00BF40F21000C2F20000FFF7E4FC5A
:103EB000FFF72EFA000609D0052002B070BD00BF42
:103EC000782EC0D0022002B070BD00BF40F2731047
:103ED000FEF7D6FE000603D0062002B070BD00BF7C
:103EE000C820FFF77BF9000602D0072002B070BDA2
:103EF00001F040FB012001F033F9C0B2002818BFE7
:103F0000092002B070BD000040F21001C2F20001B1
:103F10004A7D032A84BF4FF0FF30704740F20243CE
:103F2000D200C1F20803D3400370C97F002904BF47
:103F30000020704740F60401C2F21001D140017028
:103F40000020704740F21002C2F20002517D0329A6
:103F500084BF4FF0FF30704707A3D27F33F8113092
:103F6000002A038004BF0020704705A232F8111018
:103F700001800020704700BF00409C1F0010000817
:103F80000020CE0F0008000410B582B040F21004EB
:103F90008020C2F200048DF80100D4E903100DF175
:103FA00001030078897C0122FEF7E8FB002840F03D
:103FB0008D806420FCF718FE00208DF80100D4E904
:103FC00003100DF101030078897C0122FEF7D6FB76
:103FD00000287BD1D4E903100DF101030078897D1D
:103FE0000622FEF739FB002870D19DF806109DF8D7
:103FF00002009DF80420890062F3410100F00100F5
:10400000084410F0070003D0022822D1002021E04C
:10401000D4E903100DF101030078C9780122FEF7FD
:104020001BFB002852D19DF8010000F00F0004286E
:104030000CD00028EAD146F6F670C0F6000002F077
:10404000FDF84FF0FF34204602B010BD26A002F06C
:10405000F5F80120E0774FF6FF706083FF202077AE
:10406000A0774FF0FF3060610020C4E90800A06233
:10407000A085C4F82F0084F8330018208DF80700BD
:10408000D4E90310012200788979227684F82E2061
:104090000DF107030122FEF771FBB8B99DF8070087
:1040A000C0082075022000F095FF78B92A2001F0A1
:1040B000C7F858B9322001F011F938B90020FFF7DC
:1040C00055FD18B9002000F0D3FF28B14FF0FF34A0
:1040D000204602B010BD00BF0020002401F0A2F96C
:1040E000204602B010BD00BF48616C662073656E4B
:1040F0007369746976697479207061727420666F6F
:10410000756E642E000000002DE9F04F89B007465F
:1041100000294FF0FF3000F0908040F21009C2F209
:104120000009884699F83110002940F08680002F58
:10413000CDE9003267D000244FF0000ACDF80880A6
:10414000A7EB040B99F81600BBF1100FA8BF4FF0B6
:10415000100B002865D0D9F810005FFA8AF11FFA19
:104160008BF342895E189AFA8AF196424FEA11411E
:104170000393ADF8221054D8D9F80C100078097EBA
:1041800002220DF12203FEF7F9FA002849D1D9E9FC
:10419000031044440078497D5FFA8BF84246234679
:1041A0004D46FEF7EBFAE0BBA87DD0B328691FFAB5
:1041B0008AF142892B46090A96428DF822108DF821
:1041C00023A02ED8D9680078097E02220DF122039F
:1041D000FEF7D4FA28BBD9E903100DF112050078D7
:1041E000497D42462B46FEF737FAD0B9039A20465E
:1041F0002946FBF7F3FF18BBDA441FFA8AF4DDF80F
:104200000880BC429CD301980DF1220340BAADF85E
:104210002200D9E9031002220078897EFEF7AEFA67
:1042200020B14FF0FF3009B0BDE8F08F012089F8D0
:1042300031000098A9F83200002009B0BDE8F08FE5
:104240006FF0010009B0BDE8F08F000070B584B0D8
:10425000282800F2E08040F2100504460028C2F24F
:10426000000543D095F82F0001281FD0A87F95F8AE
:104270002E103222002808BF30228DF80A2039B1D2
:104280006FF04D01002808BF6FF04F018DF80A1044
:10429000D5E903100DF10A030078097D01220126FA
:1042A000FEF76CFA002808BF85F82F602020012C4B
:1042B0008DF8070052D1A87D00218DF8081090B12B
:1042C000E87D062106288DF80B100CD0D5E90310E7
:1042D0000DF10B03007889780122FEF74FFA10B92F
:1042E0009DF80B00E875072089E000BF95F82F00C6
:1042F00000B3A87F95F82E100246002818BF0122AF
:1043000052008DF8092039B16FF07D01002808BFF7
:104310006FF07F018DF80910D5E903100DF1090345
:104320000078097D0122FEF729FA002804BF002049
:1043300085F82F004FF4E060ADF80700D5E90310D1
:104340000DF107030078897C0222FEF717FA002896
:1043500061D1002085F8200004B070BD052C19D86B
:10436000A87D01218DF8081088B1E87D0621062876
:104370008DF80C100BD0D5E9031003AB00788978C9
:104380000122FEF7FBF910B99DF80C00E8754720F3
:1043900035E000BF142C19D8A87D02218DF8081033
:1043A00090B1E87D052105288DF80D100CD0D5E9D8
:1043B00003100DF10D03007889780122FEF7DEF974
:1043C00010B99DF80D00E875872018E0A87D03213D
:1043D0008DF8081090B1E87D042104288DF80E10A6
:1043E0000CD0D5E903100DF10E0300788978012275
:1043F000FEF7C4F910B99DF80E00E875C7208DF8D6
:104400000800D5E903100DF107030078897C02222A
:10441000FEF7B4F920B14FF0FF3004B070BD00BF1B
:1044200095F830100820A875002000294FF00101F0
:10443000287685F8201001D004B070BD697F2877F8
:1044400079B901208DF80F00D5E903100DF10F03A4
:104450000078C97B0122FEF791F910B99DF80F0091
:104460006877002004B070BD2DE9F04182B040F2C1
:104470001007C2F200070E4697F8301005460029D3
:104480004FF0FF3042D0B97D00293FD0D7E903106B
:1044900014460078897A0DF106030222FEF7DCF853
:1044A00020B14FF0FF3002B0BDE8F081BDF806004A
:1044B000000490FA80F8A84506D2002020704FF042
:1044C000FF3002B0BDE8F08138694188B8EB510F88
:1044D0000ED9F9680078497C0DF106030122FEF738
:1044E000BBF80028DDD19DF80600C00612D438695B
:1044F000F9680078C97AEAB23346FEF7ADF80028C9
:10450000CFD1B8FBF5F001382070002002B0BDE833
:10451000F08100BF00F006F86FF0010002B0BDE8C6
:10452000F081000010B582B040F21004C2F2000425
:10453000A07D00B300208DF80700D4E903100DF131
:1045400007030078C97B0122FEF718F998B9D4E96E
:1045500003100DF10703007849790122FEF70EF9E7
:1045600048B9D4E903100DF1070300780979012255
:10457000FEF704F920B14FF0FF3002B010BD00BFCC
:1045800094F83000002845D00C208DF80700D4E9BD
:1045900003100DF10703007809790122FEF7EEF808
:1045A0000028E8D13220FCF71FFBA07D0DF10703A6
:1045B000C0076FF01F0008BF6FF03F008DF80700C5
:1045C000D4E90310012200780979FEF7D7F8002812
:1045D000D1D1607F0DF10703002818BF01204000F2
:1045E0008DF80700D4E9031001220078C97BFEF79B
:1045F000C5F80028BFD100208DF80700D4E90310CA
:104600000DF10703007849790122FEF7B7F8002879
:10461000B1D145E004208DF80700D4E903100DF175
:104620000703007809790122FEF7A8F80028A2D133
:10463000A07DA17FC0074FF0600008BF4020002987
:1046400018BF40208DF80700D4E903100DF10703CF
:10465000007809790122FEF791F800288BD13220E9
:10466000FCF7C2FA607F0DF10703002818BF012094
:104670008DF80700D4E9031001220078C97BFEF70A
:104680007DF800287FF477AFD4E9031004F11C0310
:10469000007849790122FEF771F800287FF46BAFAA
:1046A000002002B010BD00002DE9F04F93B040F2A1
:1046B000100AC2F2000A9AF830408946054614B141
:1046C000002000F04DFD9AF8140003280CD8FA22BF
:1046D000DFE800F0140212284FF4FA729AF815007D
:1046E0000B9203280FD924E000229AF815000B92B0
:1046F000032808D91DE000BF4FF47A729AF815001C
:104700000B92032815D80FF6BC029AF81F3002EB63
:1047100080020FF6A001002B08BF01EB8002106899
:10472000023808E04FF4FA629AF815000B92032859
:10473000E9D96FF001000A909AF817000138C1B268
:1047400005291BD800F03F00B0FA80F14909099112
:104750000321C14001F0010107910721C14001F08F
:10476000010106910F21C14001F0010105911F21B6
:1047700021FA00F000F0010009E000BF00200990DC
:104780000020079000200690002005900020049053
:10479000BAF81A809AF816709AF81C6028464946AA
:1047A0000022FEF7CFFE48B12846494600224FF0CE
:1047B000000BFEF7C7FE002840F04B830FA80CA9A2
:1047C00001220895FEF7BEFE40B10FA80CA90122F8
:1047D000FEF7B8FE10B14FF0000B3AE3DAF8100024
:1047E00012AB00780D2104220397CDE90164FDF797
:1047F00033FFCDF8008058B3D9F800000C99401A67
:1048000048BF4042FBF78DFF4FF05E51FBF74BFD79
:10481000044628460021FBF776FF002846D12046B3
:104820002946FBF772FD0021CBF68071FBF7E3FC14
:1048300045F6294120F00040C3F60F61FBF72BFF3E
:1048400000280CBF4FF001084FF0000842E000BF05
:104850009DF848009DF84B609DF849201C259DF867
:104860004A3005EAD000C6F30111091805EAD20062
:10487000C6F3810200EB020705EAD30B06F003043E
:1048800000F0D680B1F1010800F0E68018F00302D4
:10489000A1F1020000F0EA80012A40F0F1804FF619
:1048A000AD75C3F6B3658046F9E000BF49F69A11CD
:1048B000C3F699612046FBF7FCFE43F2333105460F
:1048C000C3F673712046FBF710FF55EA000818BFC6
:1048D0004FF00108D9F804000D99401A48BF404232
:1048E000FBF71FFF4FF05E51FBF7DDFC054630463E
:1048F0000021FBF708FFA8B928463146FBF705FD64
:104900000021CBF68071FBF776FC45F6294120F0BB
:104910000040C3F60F61FBF7BEFE002808BF08F198
:10492000020815E043F23331C3F67371284608F1EB
:104930000204FBF7DAFE49F69A110028C3F69961E2
:10494000284618BFA046FBF7B4FE002818BFA046B3
:10495000D9F808000E99401A48BF4042FBF7E1FE23
:104960004FF05E51FBF79FFC044638460021FBF7F1
:10497000CAFEA8B920463946FBF7C7FC0021CBF692
:104980008071FBF738FC45F6294120F00040C3F662
:104990000F61FBF780FE002808BF08F1040815E04E
:1049A00043F23331C3F67371204608F10405FBF777
:1049B0009CFE49F69A110028C3F69961204618BF5B
:1049C000A846FBF776FE002818BFA846DAF81000C4
:1049D000039F0078089C12AB0D210322FDF73CFEDB
:1049E00010B1072629E200BF20680F999DF84820E2
:1049F000401A48BF40429DF849709DF84A9002F025
:104A00001F05FBF78EFE4FF05E51FBF74CFC044692
:104A100085B16E1E26D016F00301A5F102002BD041
:104A2000012977D143F23331C4F2D11106467FE038
:104A300000254EE00021C4F220112046FBF739FE8C
:104A400000210546C4F2D2212046FBF74EFE55EA6E
:104A5000000618BF012696E041F27B45C3F6AE651D
:104A600037E000BF0021C4F2C81178E041F27B4575
:104A7000C3F6AE6513E000BF0021C4F2C81157E0D1
:104A800047F25E25A1F10408C3F6C065022A08BFFB
:104A9000A1F1030804BF41F66365C3F6BA650328B4
:104AA00017D345F61D26C3F6847600BF2846314647
:104AB000FBF7F9FB3146FBF7F6FB3146FBF7F3FB5F
:104AC0003146FBF7F0FBA8F104085FEA08610546F0
:104AD000ECD10BEB04087FB17C1E0FD014F0030166
:104AE000A7F1020010D0012940F088804FF6AD7682
:104AF000C3F6B36604468EE00026A4E041F27B468E
:104B0000C3F6AE669FE000BF41F27B46C3F6AE66D9
:104B100081E000BF02294EF29A31A5F10406C4F2E9
:104B2000E41108BFEE1E04BF4DF2BD21C4F2DA113C
:104B3000032814D34EF25435C3F68575084629462A
:104B4000FBF7B1FB2946FBF7AEFB2946FBF7ABFBB6
:104B50002946FBF7A8FB043E31060146EED120466C
:104B6000FBF7D3FB0021CBF68071FBF744FB45F646
:104B7000294120F00040C3F60F61FBF78CFD0028AF
:104B80000CBF0126002608981099406807F01F0501
:104B9000401A48BF4042FBF7C4FD4FF05E51FBF79F
:104BA00082FB044675B16F1E20D017F00301A5F1FA
:104BB00002001FD0012969D143F23331C4F2D1116F
:104BC000074671E00021C4F2D2212046B51CFBF754
:104BD0008CFD00210028C4F22011204618BF2E466B
:104BE000FBF767FD002818BF2E4687E00021C4F2BE
:104BF000C81170E00021C4F2C81155E047F25E26EA
:104C00003C1FC3F6C066022908BFFC1E04BF41F664
:104C10006366C3F6BA66032815D345F61D27C3F6A7
:104C2000847700BF30463946FBF73DFB3946FBF73A
:104C30003AFB3946FBF737FB3946FBF734FB043CBC
:104C400021060646EED1B8F1000F11D0B8F10104EB
:104C500010D014F00301A8F1020011D0012940F096
:104C60008B804FF6AD77C3F6B367044693E000BF81
:104C70000027C1E541F27B47C3F6AE67BCE500BF44
:104C800041F27B47C3F6AE6785E000BF02294EF2D2
:104C90009A31A5F10407C4F2E41108BFEF1E04BF66
:104CA0004DF2BD21C4F2DA11032814D34EF254356B
:104CB000C3F6857508462946FBF7F5FA2946FBF742
:104CC000F2FA2946FBF7EFFA2946FBF7ECFA043F24
:104CD00039060146EED12046FBF717FB0021CBF643
:104CE0008071FBF788FA45F6294120F00040C3F6B1
:104CF0000F61FBF7D0FC002808BF0236DDF820B0BA
:104D00001199DBF8080009F01F05401A48BF40421E
:104D1000FBF707FD4FF05E51FBF7C5FA04467DB186
:104D20006F1E21D017F00301A5F1020020D0012948
:104D30004AD143F23331C4F2D111074652E000BFE9
:104D40000021C4F2D2212046351DFBF7CEFC002104
:104D50000028C4F22011204618BF2E46FBF7A9FCFC
:104D6000002818BF2E4667E00021C4F2C81150E0A9
:104D70000021C4F2C81135E047F25E27A8F104040F
:104D8000C3F6C067022908BFA8F1030404BF41F6B7
:104D90006367C3F6BA670328FFF42EAD45F61D28F6
:104DA000C3F6847838464146FBF77DFA4146FBF767
:104DB0007AFA4146FBF777FA4146FBF774FA043C6E
:104DC00021060746EED117E502294EF29A31A5F1E8
:104DD0000407C4F2E41108BFEF1E04BF4DF2BD2169
:104DE000C4F2DA11032814D34EF25435C3F6857594
:104DF00008462946FBF757FA2946FBF754FA294695
:104E0000FBF751FA2946FBF74EFA043F39060146F3
:104E1000EED12046FBF779FA0021CBF68071FBF743
:104E2000EAF945F6294120F00040C3F60F61FBF78F
:104E300032FC002808BF0436039FB6FA86F04FEA1A
:104E4000501BB8F1000F08BF0BF1020B029CDDE90B
:104E500000864FF6FF70AAF81A00FF200B998AF817
:104E60001C004FF0FF30CAF814000120B1F57A7F22
:104E70008AF8180006DAFA290AD0B1F5FA7F1ED1AD
:104E8000082008E006D0B1F5FA6F18D1182002E02A
:104E9000002000E010208DF84800DAE9031012AB82
:104EA000007889790122FDF769FC20B99DF8480056
:104EB000C0088AF814009AF81600002868D00A98EA
:104EC0004FEA7000072837D8DFE800F0040C3616E8
:104ED0003636362000208DF848009AF815108142A9
:104EE0001CD129E008208DF8480001209AF81510FF
:104EF000814213D120E000BF10208DF8480002202D
:104F00009AF81510814209D116E000BF18208DF8DB
:104F1000480003209AF8151081420DD0DAE90310F9
:104F200012AB0078C9790122FDF728FC20B99DF861
:104F30004800C0088AF815009AF8160040B309988E
:104F400010B1012011E000BF079808B102200CE069
:104F5000069808B1032008E0059808B1042004E091
:104F6000049800280CBF062005209AF817108DF829
:104F7000480081420CD0DAE9031012AB007889783E
:104F80000122FDF7FBFB18B99DF848008AF81700CD
:104F9000404600F0A3F9384600F044FA3046FEF7E8
:104FA000E5FD14B1012000F0DBF8584613B0BDE870
:104FB000F08F00BF020000000400000008000000A5
:104FC00010000000040000000800000010000000B5
:104FD0002000000010B582B040F21004C2F20004BC
:104FE000A17D00292DD002384FEA700107294FF02A
:104FF000FF303AD8DFE801F0040C39143939392A86
:1050000000208DF80700617D814226D00FE000BFAF
:1050100008208DF807000120617D81421DD006E047
:1050200010208DF807000220617D814215D0D4E95F
:1050300003100DF107030078C9790122FDF79EFBEB
:1050400070B14FF0FF3002B010BD00BF18208DF8D6
:1050500007000320617D8142E9D1002002B010BD2C
:105060009DF80700C0086075002002B010BD000068
:10507000B0B582B040F21005C2F20005A97F8142AE
:1050800002D1002002B0B0BD0446D5E903100DF1F5
:105090000703007809790122FDF7DEFA94B30028AE
:1050A00046D19DF807000DF1070300F0DF008DF8F1
:1050B0000700D5E90310012200780979FDF75EFBAE
:1050C000B0BB0320FBF790FD95F82E1095F82F202C
:1050D0006FF07D00002908BF02208DF807001AB18B
:1050E00040F030008DF80700D5E903100DF10703FB
:1050F0000078097D0122FDF741FBC8B9AC7700209B
:1051000002B0B0BDA0B99DF80700A97D00F0DF0096
:1051100001F0010140EA41108DF80700D5E90310C4
:105120000DF10703007809790122FDF727FB18B17B
:105130004FF0FF3002B0B0BD0320FBF755FD95F8EE
:105140002E0095F82F10024600281CBF01226FF098
:105150007F00D20100298DF80720C1D1C4E70000EB
:10516000B0B582B040F21004C2F2000494F83010DE
:1051700081425DD0D0B394F8310000285CD009B9E9
:10518000A07D78B100208DF80500D4E903100DF161
:1051900005030078C97B0122FDF7F0FA10B99DF8EC
:1051A0000500607700200025FFF762FF608E00F0A9
:1051B00095F820698DF80450007801AB2321012275
:1051C0000125FDF7DBFA02208DF80600D4E9031073
:1051D0000DF106030078C97B012284F83050FDF7F9
:1051E000CDFA18BB9DF8060060771FE009B9A07DD5
:1051F00078B100208DF80700D4E903100DF1070302
:105200000078C97B0122FDF7B9FA10B99DF80700B3
:105210006077207F21698DF80400087801AB232195
:105220000122FDF7ABFA002084F83000FFF77AF98D
:10523000002002B0B0BD00BF4FF0FF3002B0B0BDE3
:1052400010B582B040F21004C2F20004A17DD1B3C7
:10525000BC2807D30120E17D8DF8070081423AD0B8
:1052600027E000BF622807D30220E17D8DF8070008
:10527000814230D01DE000BF2A2807D30320E17D02
:105280008DF80700814226D013E000BF142807D311
:105290000420E17D8DF8070081421CD009E000BFA9
:1052A0000A2834BF06200520E17D8DF807008142E1
:1052B00011D0D4E903100DF1070300788978012299
:1052C000FDF75CFA20B14FF0FF3002B010BD00BF17
:1052D0009DF80700E075002002B010BD70B582B0E7
:1052E00040F21005C2F20005A97D044600294FF0E6
:1052F000FF3000F0948095F83010002940F08F8046
:1053000095F8200000283ED0601E80B2272805D8DE
:10531000E0B2FEF79BFF002002B070BD95F82F00B1
:1053200000B3A87F95F82E100246002818BF01226E
:1053300052008DF8062039B16FF07D01002808BFBA
:105340006FF07F018DF80610D5E903100DF106030B
:105350000078097D0122FDF711FA002804BF002022
:1053600085F82F004FF4E060ADF80400D5E9031094
:1053700001AB0078897C0222FDF700FA002804BF07
:10538000002085F820004FF47A76B4F57A7F28BFA4
:105390003446042C98BF0424B6FBF4F00DF103034B
:1053A00001388DF80300D5E903100122007849780F
:1053B000FDF7E4F920B14FF0FF3002B070BD00BF3F
:1053C0009DF80300AA7D411CB6FBF1F169832AB365
:1053D000012801D801200FE0042801D802200BE0A9
:1053E0000A2801D8032007E0182801D8042003E088
:1053F00031288CBF06200520E97D8DF80700814209
:105400000CD0D5E903100DF107030078897801224B
:10541000FDF7B4F910B99DF80700E875002002B057
:1054200070BD0000B0B582B0044610F0700F01D01E
:10543000012003E0002C0CBF4020002040F21005AA
:10544000C2F200058DF80600D5E903100DF1060340
:105450000078897C0122FDF791F9F8B99DF80600E2
:10546000A10600F0BF024FF0040020EA141058BF5C
:105470000230C4F30011084480F00100210758BF36
:1054800038308DF80600D5E903102A760078C97CFB
:105490000DF106030122FDF771F938B10020A8755E
:1054A0004FF0FF34204602B0B0BD00BF14F0F70F3C
:1054B00023D095F82F0000B3A87F95F82E10024650
:1054C000002818BF012252008DF8072039B16FF073
:1054D0007D01002808BF6FF07F018DF80710D5E926
:1054E00003100DF107030078097D0122FDF746F94D
:1054F000002804BF002085F82F00AC75002432205E
:1055000085F82040FBF770FB204602B0B0BD0000DC
:1055100070B582B00D4601464FF0FF3042B340F205
:105520001006C2F200061446B27D0AB330694ABAC8
:10553000C9B2438929449942ADF8062008D8F168D8
:105540000078097E0DF106030222FDF717F918B164
:105550004FF0FF3002B070BDD6E90310EAB2007818
:10556000497D2346FDF70AF9002818BF4FF0FF30A8
:1055700002B070BDF0B587B004A801A9FFF794F898
:10558000072811D140F21007C2F20007387D032826
:105590000ED0022812D0002401280CBFC4F28324AC
:1055A000C4F203340EE000BF012007B0F0BD00BF1D
:1055B00043F23334C4F2831404E000BF43F23334C3
:1055C000C4F20324DDE90406069DFBF7AAF80146B0
:1055D0002046FAF768FEFBF7B2F804903046FBF776
:1055E000A0F801462046FAF75EFEFBF7A8F8059002
:1055F0002846FBF796F801462046FAF754FEFBF7DB
:105600009EF8069004A8FDF721FE787D03280BD8AC
:1056100011A2FB7F02EB80020BA1002B08BF01EB64
:105620008002106801E000BF002001AB0ECB4143B7
:10563000019102FB00F15843039001A80291FDF78C
:105640006DFD002007B0F0BD004000009C1F000071
:10565000001000000008000000200000CE0F000035
:1056600000080000000400000FB4054B10B503A9AA
:10567000044A029800F09AF810BC5DF814FB000090
:105680002135000800000020490050EAC12018BF61
:1056900004204A0D18BF40F0010040F2FF72B2EB47
:1056A000515F08BF40F00200012808BF0520704785
:1056B0002DE9F0414F1E00EBC7010446D1E900017E
:1056C00015461E4637F006020DD02A463346FAF735
:1056D00001FF7F1E04EBC703D3E90023FAF753FE53
:1056E00037F00602F1D1022F25D0042F13D0062F58
:1056F00018BFBDE8F0812A463346FAF7EBFED4E93D
:105700000A23FAF740FE2A463346FAF7E3FED4E9C5
:105710000823FAF738FE2A463346FAF7DBFED4E9C7
:105720000623FAF730FE2A463346FAF7D3FED4E9C9
:105730000423FAF728FE2A463346FAF7CBFED4E9CB
:105740000223FAF720FE2A463346FAF7C3FED4E9CD
:105750000023BDE8F041FAF716BE0122FBF71DB9A0
:10576000FAF711BE0022134610461146FAF724BF7D
:10577000024A00201107FBF710B9000001FDFFFFEE
:1057800002E008C8121F08C1002AFAD1704770470A
:10579000002001E001C1121F002AFBD17047000068
:1057A0000149086070470000040000202DE9FF4F08
:1057B0008DB00F460546002606E025280BD0DDE912
:1057C0000F1290476D1C761C28780028F5D111B077
:1057D0003046BDE8F08F0024A246A1460122EC49E4
:1057E00000E0044315F8013F203B02FA03F00842B1
:1057F000F7D128782A2810D06FF02F022878A0F14E
:105800003001092914D80AEB8A0102EB410144F066
:10581000020400EB010A6D1CF0E701CF5FEA000A09
:1058200003D544F40054CAF1000A44F002046D1C8C
:1058300028782E2817D115F8010F44F004042A28DF
:105840000ED06FF02F022878A0F1300109290AD874
:1058500009EB890102EB410100EB01096D1CF2E744
:1058600057F8049B6D1C28786C280FD006DC4C2858
:1058700017D068280DD06A2814D104E0742810D0FD
:105880007A280FD10DE044F400140AE044F48014A7
:1058900001E044F440146978814202D104F5801497
:1058A0006D1C6D1C2A786E2A1FD00CDC632A31D047
:1058B00004DC002A8BD0582A11D1A3E0642A68D0D6
:1058C000692A0CD165E0732A2ED004DC6F2A73D0CC
:1058D000702A04D19BE0752A6FD0782A6ED01046CA
:1058E000DDE90F129047761C50E1C4F30250022804
:1058F00006D0032809D0042801CF09D0066045E16D
:1059000001CFF117C0E9006140E101CF06803DE120
:1059100006703BE117F8040B8DF8000000208DF8AD
:105920000100EB46012003E057F804BB4FF0FF30C5
:1059300061074FF0000102D40DE008F10101884633
:1059400049450FDA8045F8DB1BF808100029F4D12F
:1059500008E008F1010188468142FADB1BF80810D3
:105960000029F6D1DDE90F23AAEB08008146214684
:1059700000F036F9304400EB080604E0DDE90F12D0
:105980001BF8010B9047B8F10108F7D221464846B1
:10599000F7E00A21C4F302534FF0000B0891022BE9
:1059A00004D001CFC117032B09D00AE0FF1D27F057
:1059B0000707F7E8020108E032E01FE020E000B24C
:1059C000C117042B01D140B2C117031E71F10003AE
:1059D00007DA4FF0000CD0EB0C006CEB01012D232B
:1059E00002E0230504D52B238DF82430012303E0A6
:1059F000E30701D02023F7E7984658E00A2110E09A
:105A000010210EE010204FF0000B08900CE0102148
:105A10004FF0000B44F004044FF00809089103E034
:105A200008214FF0000B0891C4F30253022B04D05D
:105A300001CF0021032B06D006E0FF1D27F007074A
:105A4000F7E8020103E080B2042B00D1C0B24FF0AE
:105A5000000823072BD5702A07D0DDF820C08CF072
:105A6000100C5CEA0B0C05D00EE040238DF82430BE
:105A7000012308E050EA010306D030238DF82430DA
:105A80008DF8252002239846DDF820C08CF0080C04
:105A90005CEA0B0C0BD150EA010301D1630706D578
:105AA00030238DF824304FF00108A9F10109582A5C
:105AB00004D038A20B9208AA0A920BE03AA2F9E7A6
:105AC0005B46089AFAF783FE0B9B9B5C0A9A521E70
:105AD0000A92137050EA0102F2D10A98ADEB00006D
